0156029240999992000082321004+62530+024220FM-12+0161EFHT V0202801N000510012019N0200001N1+01131+00911100761ADDAY121031AY221031GF108991081061001501999999MD1010001+9999MW1021REMSYN082AAXX  23214 02924 42270 82801 10113 20091 40076 50000 70222 886// 555 60101 786//;
0240029470999992000061118004+61730+027300FM-12+0138EFMI V0202001N001512200019N0400001N1+02281+00881100771ADDAA199000091AY111061AY211061GF103991011051012501081001IA1019KA1120M+02491KA2120N+01651MD1610171+9999MW1011REMSYN104AAXX  11184 02947 32682 32003 10228 20088 40077 56017 70111 81580 333 10249 20165 30/// 555 60148 741//;EQDQ01  00002PRCP99
0108030020999992000013104004+60750-000850FM-12+001599999V0203201N010819999999N0290001N1+00441-00161099241ADDMD1210811+9999REMSYN082AAXX  31044 03002 46379 /3221 10044 21016 49924 52081 555 82/06 84/33 86/38 90350;
0051030410999992000051711004+56820-004970FM-12+113099999V0202601N009319999999N9999999N1+00041-00011999999REMSYN042AAXX  17114 03041 46/// /2618 10004 21001;
0140029350999992000061221004+62400+025680FM-12+0145EFJY V0202601N001512200019N0500001N1+01011+00681100301ADDGA1001+999999999GF100991001001999999001001MD1210231+9999REMSYN072AAXX  12214 02935 4/984 02603 10101 20068 40030 52023 70000 80/// 92050;
0140029190999992000033115004+62680+030950FM-12+016599999V0202301N000510120019N0400001N1+00651-00431100291ADDAY111031AY211031GF107991061051012501031011MD1710041+9999MW1021REMSYN066AAXX  31154 02919 42682 72301 10065 21043 40029 57004 70211 86531;
0162029130999992000100610504+63090+023020FM-15+0044EFKA V0201301N004110120019N0112651N1+01201+01101999999ADDGA1021+010209999GA2081+012009999GF108991999999999999999999MA1102301999999MW1001REMMET052EFKA 061050Z 13008KT 9999 FEW034 OVC040 12/11 Q1023;EQDQ01+000000PRSWM2
0148030020999992000111106004+60750-000850FM-12+001599999V0201301N008719999999N0230001N1+00821+00551100151ADDAA112001091KA1120N+00391MD1710101+9999REMSYN098AAXX  11064 03002 16473 /1317 10082 20055 40015 57010 60012 333 20039 555 81/17 81/41 87/48 90552;
0124029440999992000092303004+61420+023570FM-12+0112EFTP V0209999C000012200019N0049001N1-00091-00131103631ADDGF101991011999999999999999MD1210011+9999REMSYN072AAXX  23034 02944 4/949 10000 11009 21013 40363 52001 72032 81/// 90250;
0132030140999992000041307004+60120-002070FM-12+001399999V0200201N010319999999N9999999N1+00381+00201100331ADDMD1210021+9999REMSYN106AAXX  13074 03014 46/// /0220 10038 20020 40033 52002 555 1//39 05014 07015 10215 11411 12338 14849 15504;
0083029580999992000081308004+61070+028150SAO  +0105EFLP V0209999C000012200019N9999999N1+99999+99999999999ADDMW1001REMAWY065EFLP 130750Z AUTO 06005KT 020V090 9999 FEW014 BKN018 17/14 Q1012;
0076029700999992000070301004+60110+019900SAO  +0006EFMA V0209999C000019999999N9999999N1+99999+99999999999ADDMW1001REMAWY058EFMA 030050Z AUTO 35006KT 330V030 9999 OVC001 12/11 Q1007;
0176028690999992000041417504+65970+029180FM-15+0263EFKS V0201001N002610009019N0024001N1+00001+00001999999ADDGA1081+000909999GF108991999999999999999999MA1099491999999MW1611MW2711REMMET060EFKS 141750Z 10005KT 070V140 2400 -SNRA OVC003 00/M00 Q0995;EQDQ01+000003PRSWM1Q02    003PRSWM1
0097029520999992000020618504+61470+021800FM-15+0017EFPO V0202601N00511220001CN0099001N1+00401+00101999999ADDMA1099801999999MW1001REMMET045EFPO 1850Z 26010KT 220V290 CAVOK 04/01 Q0998;EQDQ01+000000PRSWM2
0170029660999992000020717504+60900+026930FM-15+0100EFUT V0201601N006210009019N0060001N1+00201+00101999999ADDGA1081+000909999GF108991999999999999999999MA1099091999999MW1611REMMET060EFUT 1750Z AUTO 16012KT 120V210 6000 -RA OVC003 02/01 Q0991;EQDQ01+000003PRSWM1Q02    003PRSWM1
0195030350999992000092312004+57030-007440FM-12+0003EGPR V0201201N010810066019N0160001N1+01351+01331100931ADDAA106001091AY161061AY221061GA1081+006609069GF108991081051008001999999MD1710261+9999MW1601REMSYN094AAXX  23124 03035 11566 81221 10135 20133 40093 57026 60011 76062 885// 333 88622 90710 91128;
0076029474999992000040911004+62170+027870SAO  +0087EFVR V0209999C000012200019N9999999N1+99999+99999999999ADDMW1001REMAWY058EFVR 091050Z AUTO 07005KT 9999 BKN035 OVC046 03/M04 Q1022;
0181029150999992000010809004+63080+025870FM-12+0132EFVI V0202001N002119999999N0060001N1+00231+00181099131ADDAW1511AZ181031GF108991081999001501999999MA1999999097531MD1710121+9999REMSYN100AAXX  08094 02915 44256 82004 10023 20018 39753 49913 57012 75185 88/// 90839 555 797// 80120 0/304;
0141029135999992000112308504+63710+023150FM-15+0025EFKK V0201401N004610018019N0112651N1+00001-00101999999ADDGA1081+001809999GF108991999999999999999999MA1102101999999MW1001REMMET047EFKK 230850Z 14009KT 9999 OVC006 M00/M01 Q1021;EQDQ01+000000PRSWM2
0149030620999992000040906004+57820-003970FM-12+0004EGQA V0203101N003119999999N0300001N1+00551+00301102441ADDAA199000091KA1120N+00521MD1210021+9999REMSYN080AAXX  09064 03062 36680 /3106 10055 20030 40244 52002 333 20052 555 88/34 90552;EQDQ01  00002PRCP99
0194030660999992000041203004+57650-003570FM-12+0007EGQK V0200801N005110060019N0100001N1+00431+00231099631ADDAY161031AY261031GA1011+001209079GA2051+006009069GF108991071051001501021999MD1110101+9999MW1611REMSYN088AAXX  12034 03066 41260 80810 10043 20023 49963 51010 76166 8752/ 333 81704 85620 86630;
0096030620999992000022519004+57820-003970FM-12+0004EGQA V0202301N005719999999N0250001N1+00581+00231101701ADDMD1210091+9999REMSYN070AAXX  25194 03062 46775 /2311 10058 20023 40170 52009 555 81/50 91851;
0200030080999992000120416004+59530-001620FM-12+005999999V0201301N012310018019N0080001N1+00901+00881098311ADDAY161999AY251999GA1041+000909079GA2081+001809079GF108991081071001501999999MD1710471+9999MW1581REMSYN094AAXX  04164 03008 41258 81324 10090 20088 49831 57047 75865 887// 333 84703 88706 90710 91137;
0061030650999992000011017004+57120-003630FM-12+124599999V0202701N019519999999N9999999N1+00061+00041999999REMSYN052AAXX  10174 03065 46/// /2738 10006 20004 555 1//61;
0172030660999992000060511504+57650-003570FM-15+0007EGQK V0200701N005710099019N0112651N1+01001+00401999999ADDGA1021+008109999GA2071+009909999GF107991999999999999999999MA1102301999999MW1001REMMET062EGQK 051150Z 07011KT 9999 FEW027 BKN033 10/04 Q1023 BLU NOSIG;EQDQ01+000000PRSWM2
0091028750999992000072815504+64930+025360FM-15+0015EFOU V0203201N00411220001CN0099001N1+02001+00901999999ADDMA1101081999999MW1001REMMET039EFOU 281550Z 32008KT CAVOK 20/09 Q1011;EQDQ01+000000PRSWM2
0085030070999992000010414004+60580-001270FM-12+002299999V0201501N012919999999N9999999N1+00701+00491999999REMSYN076AAXX  04144 03007 46/// /1525 10070 20049 4//// 5//// 555 1//36 05012 07150;
0069029470999992000102621204+61730+027290SAO  +0138EFMI V0209999C000019999999N9999999N1+99999+99999999999ADDMW1001REMAWY051EFMI 262120Z AUTO 27008KT 9999 OVC016 02/M01 Q0995;
0181029720999992000071323504+60510+022260FM-15+0059EFTU V0201701N007210036019N0112651N1+01401+01101999999ADDGA1071+003609999GA2071+004509999GF107991999999999999999999MA1099491999999MW1001OC101341REMMET063EFTU 132350Z 17014G26KT 130V230 9999 BKN012 BKN015 14/11 Q0995;EQDQ01+000000PRSWM2
0162029440999992000082517504+61420+023570FM-15+0112EFTP V0203101N001510240019N0112651N1+01401+01101999999ADDGA1021+010509999GA2071+024009999GF107991999999999999999999MA1101591999999MW1001REMMET052EFTP 251750Z 31003KT 9999 FEW035 BKN080 14/11 Q1016;EQDQ01+000000PRSWM2
0209030170999992000123014504+58940-002900FM-15+0021EGPA V0202601N004112200019N0080001N1+00201+00001999999ADDGA1021+003609099GA2021+021009999GF104991999999999999999999MA1100411999999MW1801MW2851REMMET077EGPA 301450Z 26008KT 8000 -SHRASN SCT012CB SCT070 02/00 Q1004 TEMPO BKN012CB;EQDQ01+000003PRSWM1Q02    003PRSWM1
0156028740999992000042715004+65030+024800FM-12+0006EFHL V0209999C000010300019N0300001N1+00601-00551102861ADDAY121031AY221031GF106991011051012501041011MD1810061+9999MW1031REMSYN082AAXX  27154 02874 42680 60000 10060 21055 40286 58006 70322 81541 555 60018 738//;
0146030550999992000021207004+58870-003380FM-12+002099999V0202601N01031075001CN0300001N1+00351+00061999999ADDAY181999AY221999GA1011+004509099GF106991011091004501001031MW1271REMSYN070AAXX  12074 03055 41480 62620 10035 20006 72782 81903 333 81915 86068;
0144030050999992000111622004+60130-001180FM-12+008499999V0202801N005110300019N0300001N1+00521+00311099141ADDGA1011+012009069GF105991011051012501031001MD1310021+9999REMSYN076AAXX  16224 03005 42680 52810 10052 20031 49914 53002 81530 333 81640 85360;
0144030050999992000021719004+60130-001180FM-12+008499999V0200101N000512200019N0400001N1-00041-00321100281ADDGA1011+004509089GF104991011011004501001021MD1710121+9999REMSYN076AAXX  17194 03005 42482 40101 11004 21032 40028 57012 81102 333 81815 84075;
0141028970999992000112004504+64270+027680FM-15+0136EFKI V0200901N004610063019N0112651N1-00401-00701999999ADDGA1071+006309999GF107991999999999999999999MA1102711999999MW1001REMMET047EFKI 200450Z 09009KT 9999 BKN021 M04/M07 Q1027;EQDQ01+000000PRSWM2
0147029290999992000062808504+62670+029630FM-15+0117EFJO V0200201N002110066019N0112651N1+01801+01401999999ADDGA1071+006609999GF107991999999999999999999MA1101021999999MW1001REMMET053EFJO 280850Z 02004KT 330V070 9999 BKN022 18/14 Q1010;EQDQ01+000000PRSWM2
0096030440999992000022002004+58280-004430FM-12+008099999V0209999C000019999999N0140001N1-00401-00431102691ADDMD1710011+9999REMSYN070AAXX  20024 03044 46964 /0000 11040 21043 40269 57001 555 84/63 90151;
0129030230999992000111901004+57320-007370FM-12+001099999V0202901N014919999999N0220001N1+00711+00411098671ADDMD1710131+9999OA140102011REMSYN092AAXX  19014 03023 46/72 /2929 10071 20041 49867 57013 333 90710 91139 555 7/097 85/22 83/32;
0102029800999992000092115004+59960+019970FM-12+001099999V0201101N002619999999N9999999N1+01231+00611103131ADDMD1210061+9999REMSYN076AAXX  21154 02980 46/// /1105 10123 20061 40313 52006 222// 555 766// 0/406;
0154030680999992000011721004+57720-003320FM-12+001399999V0202801N008212200019N0500001N1+00841+00621103681ADDGA1011+005409069GF102991021051004501001001MD1710031+9999REMSYN086    AAXX  17214 03068 42484 22816 10084 20062 40368 57003 82500 333 81618 90710 91125;
0140028970999992000031403004+64280+027680FM-12+0136EFKI V0201901N002110042019N0200001N1-00111-00181099341ADDAY121031AY221031GF107991051051004501071999MD1810061+9999MW1011REMSYN066AAXX  14034 02897 42470 71904 11011 21018 49934 58006 70122 8557/;
0147028970999992000091410504+64270+027680FM-15+0136EFKI V0200901N003610108019N0112651N1+00801+00001999999ADDGA1071+010809999GF107991999999999999999999MA1102201999999MW1001REMMET053EFKI 141050Z 09007KT 040V140 9999 BKN036 08/00 Q1022;EQDQ01+000000PRSWM2
0100029350999992000052713504+62400+025680FM-15+0145EFJY V0202601N00981220001CN0099001N1+01501-00101999999ADDMA1100811999999MW1001REMMET048EFJY 271350Z 26019KT 230V290 CAVOK 15/M01 Q1008;EQDQ01+000000PRSWM2
0205028970999992000060408504+64280+027680FM-15+0136EFKI V0202401N001510039019N0090001N1+00501+00301999999ADDGA1021+002409999GA2071+003909999GA3071+005109999GF107991999999999999999999MA1099701999999MW1511REMMET063EFKI 040850Z 24003KT 9000 -DZ SCT008 BKN013 BKN017 05/03 Q0997;EQDQ01+000003PRSWM1Q02    003PRSWM1
0148030590999992000021711504+57530-004050FM-15+0009EGPE V0202101N002112200019N0112651N1+00301+00101999999ADDGA1021+006009999GF102991999999999999999999MA1100511999999MW1001REMMET054EGPE 171150Z 21004KT 160V240 9999 FEW020 03/01 Q1005 ;EQDQ01+000000PRSWM2
0183029740999992000112912504+60320+024970FM-15+0056EFHK V0202301N004110018019N0112651N1+00501+00401999999ADDGA1071+001809999GF107991999999999999999999MA1101191999999MW1611REMMET073EFHK 291250Z 23008KT 9999 -RA BKN006 05/04 Q1012 NOSIG 1529//63 2229//61;EQDQ01+000003PRSWM1Q02    003PRSWM1
0096030020999992000112022004+60750-000850FM-12+001599999V0201201N012319999999N0090001N1+00841+00471100211ADDMD1210021+9999REMSYN070AAXX  20224 03002 46459 /1224 10084 20047 40021 52002 555 87/19 92152;
0140029760999992000111812004+60360+026970FM-12+001299999V0201001N006219999999N0180001N1+00551+00421101531ADDAY121061AY221061GF108991081001999999021999MD1710341+9999MW1021REMSYN066AAXX  18124 02976 42968 81012 10055 20042 40153 57034 70222 8802/;
0170029135999992000071908504+63710+023150FM-15+0025EFKK V0200601N002610210019N0112651N1+02301+01801999999ADDGA1021+004809999GA2071+021009999GF107991999999999999999999MA1100201999999MW1001REMMET060EFKK 190850Z 06005KT 010V110 9999 SCT016 BKN075 23/18 Q1002;EQDQ01+000000PRSWM2
0091029750999992000082605504+60250+025040FM-15+0028EFHF V0203301N00151220001CN0099001N1+01301+01201999999ADDMA1102101999999MW1001REMMET039EFHF 260550Z 33003KT CAVOK 13/12 Q1021;EQDQ01+000000PRSWM2
0243029450999992000011802504+61850+024800FM-15+0145EFHA V0203401N005710072019N0112651N1-00601-00901999999ADDGA1021+004209999GA2021+005709999GA3071+007209999GA4071+024009999GF107991999999999999999999MA1098411999999MW1851REMMET085EFHA 0250Z AUTO 34011KT 300V020 9999 -SHSN FEW014 SCT019 BKN024 BKN085 M06/M09 Q0984;EQDQ01+000003PRSWM1Q02    003PRSWM1
0210030110999992000081702004+59110-005810FM-12+009899999V0200601N001519999999N9999999N1+01201+00981100641ADDMD1710021+9999REMSYN184AAXX  17024 03011 46/// /0603 10120 20098 40064 57002 555 05011 07057 10017 11026 12420 14818 15462 05012 07057 10014 11019 12405 14702 15465 71000 72100 73123 74289 75187 76123 77099;
0198030620999992000090711504+57820-003960FM-15+0004EGQA V0202301N010310150019N0112651N1+01801+99999999999ADDGA1021+006009999GA2071+015009999GF107991999999999999999999MA1099291999999MW1161OC101541REMMET064EGQA 071150Z 23020G30KT 9999 VCSH FEW020 BKN050 18/// Q0993 BLU;EQDQ01+000003PRSWM1Q02    003PRSWM1
0096030620999992000081715004+57820-003960FM-12+0004EGQA V0200501N003619999999N0400001N1+01581+01051100571ADDMD1210071+9999REMSYN070AAXX  17154 03062 46782 /0507 10158 20105 40057 52007 555 85/56 91451;
0156029450999992000082503004+61840+024790FM-12+0145EFHA V0203001N001019999999N0300001N1+00801+00741100761ADDAY111031AY211031GF106991041001999999041011MD1210071+9999MW1031REMSYN082AAXX  25034 02945 42980 63002 10080 20074 40076 52007 70311 84041 555 796// 82600;
0178030080999992000020208004+59530-001630FM-12+005999999V0202801N01441004201CN0150001N1+00271+00091099491ADDAY181999AY211999GA1031+004509099GF105991051091004501001001MD1310031+9999MW1271REMSYN088AAXX  02084 03008 41465 52828 10027 20009 49949 53003 72781 85900 333 83915 90710 91144;
0172029720999992000012317494+60520+022270FM-15+0059EFTU V0203101N001010051019N0080001N1-01101-01101999999ADDGA1071+005109999GF107991999999999999999999MA1101491999999MW1851REMMET062EFTU 231749Z 31002KT 8000 -SHSN BKN017 M11/M11 Q1015 26390135;EQDQ01+000003PRSWM1Q02    003PRSWM1
0160029520999992000011213504+61470+021800FM-15+0017EFPO V0202201N003610015019N0112651N1+00301+00301999999ADDGA1071+001509999GA2071+002409999GF107991999999999999999999MA1100911999999MW1001REMMET050EFPO 1350Z 22007KT 9999 BKN005 BKN008 03/03 Q1009;EQDQ01+000000PRSWM2
0193030080999992000082818004+59530-001620FM-12+005999999V0203601N00511007501CN0400001N1+01111+00891101921ADDAA199000091GA1031+006609069GF107991071051008001999999KA1120M+01261MD1310011+9999REMSYN082AAXX  28184 03008 32582 73610 10111 20089 40192 53001 875// 333 10126 83622 87630;EQDQ01  00002PRCP99
0162029880999992000071709004+60090+025700FM-12+000599999V0200801N002610750019N0270001N1+01801+01461101281ADDAY111031AY211031GF107991011021012501001081MD1710081+9999MW1021REMSYN088AAXX  17094 02988 42677 70805 10180 20146 40128 57008 70211 81208 555 60159 783// 02106;
0096030020999992000122620004+60750-000850FM-12+001599999V0203301N003119999999N0270001N1-00241+99999099421ADDMD1710101+9999REMSYN070AAXX  26204 03002 46677 /3306 11024 21020 49942 57010 555 84/47 91953;
0208030660999992000020215504+57650-003570FM-15+0007EGQK V0202301N009812200019N0112651N1+00401+00001999999ADDGA1021+003009999GA2021+004509099GA3021+012009999GF104991999999999999999999MA1101191999999MW1001REMMET082EGQK 021550Z 23019KT 9999 FEW010 FEW015CB SCT040 04/00 Q1012 BLU TEMPO SCT010 GRN;EQDQ01+000000PRSWM2
0140030130999992000030209004+60150-002070FM-12+002299999V0201401N010810021019N0030001N1+00151+00151999999ADDAY171031AY271031GA1081+002109069GF108991081061002501999999MW1691REMSYN064AAXX  02094 03013 41330 81421 10015 20015 76977 886// 333 88707;
0144030050999992000091605004+60130-001180FM-12+008499999V0202301N00671001201CN0250001N1+01081+01021100791ADDGA1021+000909079GF107991071051001501999999MD1510021+9999REMSYN076AAXX  16054 03005 42275 72313 10108 20102 40079 55002 875// 333 82703 86640;
0146028970999992000121621504+64270+027680FM-15+0136EFKI V0200701N001510141019N0112651N1-00401-00501999999ADDGA1071+014109999GF107991999999999999999999MA1100511999999MW1001REMMET052EFKI 162150Z AUTO 07003KT 9999 BKN047 M04/M05 Q1005;EQDQ01+000000PRSWM2
0112030400999992000022615004+56770-006050FM-12+004599999V0202701N012912200019N0250001N1+00801+00361999999ADDGA1031+013509059GF103991031051012501001001REMSYN058AAXX  26154 03040 42675 32725 10080 20036 83500 333 83645;
0168030170999992000071107504+58940-002900FM-15+0021EGPA V0203301N008210135019N0112651N1+01001+00501999999ADDGA1021+005109999GA2071+013509999GF107991999999999999999999MA1100611999999MW1001REMMET058EGPA 110750Z 33016KT 9999 FEW017 BKN045 10/05 Q1006 NOSIG;EQDQ01+000000PRSWM2
0176029350999992000022805504+62400+025680FM-15+0145EFJY V0202401N006210018019N0080001N1+00201+00101999999ADDGA1081+001809999GF108991999999999999999999MA1098981999999MW1611REMMET066EFJY 280550Z 24012KT 210V270 8000 -RA OVC006 02/01 Q0990 30290161;EQDQ01+000003PRSWM1Q02    003PRSWM1
0146030400999992000091715004+56760-006050FM-12+004599999V0202301N005110120019N0250001N1+01341+01111999999ADDAY181031AY221031GA1031+006009089GF107991071081008001999999MW1801REMSYN070AAXX  17154 03040 41575 72310 10134 20111 78082 878// 333 83820 87640;
0108030100999992000032910004+59080-004400FM-12+001699999V0202501N003119999999N9999999N1+00921+00831102771ADDMD1710041+9999REMSYN082AAXX  29104 03010 46/// /2506 10092 20083 40277 57004 555 05333 07247 10031 11044;
0140029760999992000111021004+60360+026970FM-12+001299999V0201601N000510021019N0130001N1+00471+00451101291ADDAY151031AY221031GF108991071061002501021999MD1210021+9999MW1021REMSYN066AAXX  10214 02976 41363 81601 10047 20045 40129 52002 70252 8762/;
0170029580999992000083012504+61070+028150FM-15+0105EFLP V0201701N002110240019N0112651N1+01901+00901999999ADDGA1021+014109999GA2071+024009999GF107991999999999999999999MA1101901999999MW1001REMMET060EFLP 301250Z 17004KT 120V230 9999 FEW047 BKN080 19/09 Q1019;EQDQ01+000000PRSWM2
0100029660999992000032908504+60900+026930FM-15+0100EFUT V0202001N00511220001CN0099001N1+00001-01001999999ADDMA1102611999999MW1001REMMET048EFUT 290850Z 20010KT 160V230 CAVOK 00/M10 Q1026;EQDQ01+000000PRSWM2
0108030370999992000091215004+57250-005800FM-12+001899999V0200601N002619999999N0200001N1+01411+01111101071ADDMD1410001+9999REMSYN082AAXX  12154 03037 46/70 /0605 10141 20111 40107 54000 555 7/098 81/20 83/24 87/30;
0176030660999992000011907004+57650-003570FM-12+000799999V0202301N00311004201CN0250001N1+00581+00411103831ADDAY161011AY221011GA1011+005709069GF107991071051004501999999MD1310021+9999MW1211REMSYN086    AAXX  19074 03066 41475 72306 10058 20041 40383 53002 72162 875// 333 81619 87634;
0185030220999992000072606504+57460-007370FM-15+0006EGPL V0200901N002610600019N0112651N1+01301+01201999999ADDGA1021+001809999GA2021+013509999GA3071+060009999GF107991999999999999999999MA1100811999999MW1001REMMET059EGPL 260650Z 09005KT 9999 FEW006 SCT045 BKN200 13/12 Q1008;EQDQ01+000000PRSWM2
0079029660999992000111911504+60900+026930SAO  +0100EFUT V0209999C000012200019N9999999N1+99999+99999999999ADDAA199000021MW1001REMAWY050EFUT 191150Z AUTO 19003KT 9999 SCT037 04/03 Q1011;
0140029760999992000083115004+60360+026970FM-12+001299999V0201501N001510210019N0060001N1+01501+01471101051ADDAY161031AY221031GF108991081001022501071999MD1710131+9999MW1631REMSYN066AAXX  31154 02976 41856 81503 10150 20147 40105 57013 76362 8807/;
0168029110999992000030415504+63050+021770FM-15+0004EFVA V0203201N003110045019N0020001N1-00501-00601999999ADDGA1081+004509999GF108991999999999999999999MA1098411999999MW1731REMMET058EFVA 041550Z 32006KT 280V350 2000 SN OVC015 M05/M06 Q0984;EQDQ01+000003PRSWM1Q02    003PRSWM1
0075029700999992000070801004+60110+019900SAO  +0006EFMA V0209999C000019999999N9999999N1+99999+99999999999ADDMW1001REMAWY057EFMA 080050Z AUTO 22006KT 9999 FEW022 OVC065 13/11 Q1002;
0148030590999992000031213504+57530-004050FM-15+0009EGPE V0202201N008212200019N0112651N1+01401+00601999999ADDGA1021+006009999GF102991999999999999999999MA1101901999999MW1001REMMET054EGPE 121350Z 22016KT 190V250 9999 FEW020 14/06 Q1019 ;EQDQ01+000000PRSWM2
0108030020999992000121103004+60750-000850FM-12+001599999V0202501N006219999999N0230001N1+00831+00611099151ADDMD1210211+9999REMSYN082AAXX  11034 03002 46573 /2512 10083 20061 49915 52021 555 85/21 81/31 84/37 90253;
0096030020999992000060520004+60750-000850FM-12+001599999V0200501N005119999999N0350001N1+00891+00411102361ADDMD1710071+9999REMSYN070AAXX  05204 03002 46581 /0510 10089 20041 40236 57007 555 86/21 91950;
0162029440999992000063020504+61420+023570FM-15+0112EFTP V0201401N001510270019N0112651N1+01401+01301999999ADDGA1021+003009999GA2071+027009999GF107991999999999999999999MA1101021999999MW1001REMMET052EFTP 302050Z 14003KT 9999 FEW010 BKN090 14/13 Q1010;EQDQ01+000000PRSWM2
0102030370999992000032919004+57250-005800FM-12+001899999V0200101N002119999999N0200001N1+00801+00551102571ADDMD1810051+9999REMSYN076AAXX  29194 03037 46/70 /0104 10080 20055 40257 58005 555 7/098 87/58 86/62;
0167029580999992000121119504+61070+028150FM-15+0105EFLP V0201901N003610018019N0080001N1+00501+00501999999ADDGA1071+001809999GF107991999999999999999999MA1100711999999MW1611REMMET057EFLP 111950Z 19007KT 140V230 8000 -RA BKN006 05/05 Q1007;EQDQ01+000003PRSWM1Q02    003PRSWM1
0166030630999992000050613004+57200-003830FM-12+022099999V0202201N00671030001CN0750001N1+01921+00711101731ADDGA1011+015009089GA2031+036009039GF107991021081017501051021MD1610031+9999REMSYN082AAXX  06134 03063 42789 72213 10192 20071 40173 56003 82852 333 81850 83362 85075;
0162029170999992000071507504+63190+027790FM-15+0102EFKU V0201001N001510600019N0112651N1+02001+01601999999ADDGA1021+005109999GA2071+060009999GF107991999999999999999999MA1100611999999MW1001REMMET052EFKU 150750Z 10003KT 9999 FEW017 BKN200 20/16 Q1006;EQDQ01+000000PRSWM2
0140029820999992000100603004+59760+022950FM-12+001199999V0201401N002610075019N0250001N1+01331+01161102171ADDAY121031AY221031GF106991061051008001071001MD1710041+9999MW1021REMSYN066AAXX  06034 02982 42575 61405 10133 20116 40217 57004 70222 86570;
0085030070999992000022620004+60580-001270FM-12+002299999V0201701N008719999999N9999999N1+00661+00481999999REMSYN076AAXX  26204 03007 46/// /1717 10066 20048 4//// 5//// 555 1//26 05012 07171;
0075029290999992000091418504+62670+029630SAO  +0117EFJO V0209999C000019999999N9999999N1+99999+99999999999ADDMW1001REMAWY057EFJO 141850Z AUTO 01002KT 9999 FEW046 OVC060 05/02 Q1021;
0157030680999992000092904004+57710-003310FM-12+0013EGQS V0201401N006212200019N0160001N1+01011+00851099671ADDGA1011+024009079GF102991021999999999071001MD1210031+9999REMSYN070AAXX  29044 03068 42966 21412 10101 20085 49967 52003 82070 333 81358;EQDQ01    003SCOLCG
0150030350999992000121413504+57030-007440FM-15+0003EGPR V0203601N012910120019N0112651N1+00601+00301999999ADDGA1071+012009999GF107991999999999999999999MA1100201999999MW1001OC101801REMMET048EGPR 141350Z 36025G35KT 9999 BKN040 06/03 Q1002;EQDQ01+000000PRSWM2
0281028790999992000050306004+64900+029020FM-12+0224EFSU V0202101N001010150019N0500001N1+00421-00251101241ADDAA112000891AJ199993999999999AY121061AY221061GF108991081001017501071999IA1259IA2999+00209KA1120M+00761KA2120N+00301MD1710221+9999MW1021REMSYN116AAXX  03064 02879 12784 82102 10042 21025 40124 57022 69982 70222 8807/ 333 10076 20030 3/002 41997 555 60016 76468;EQDQ01  09982SNDP  
0168030170999992000080510504+58940-002900FM-15+0021EGPA V0202001N006710066019N0112651N1+01601+01401999999ADDGA1021+003609999GA2071+006609999GF107991999999999999999999MA1101591999999MW1001REMMET058EGPA 051050Z 20013KT 9999 FEW012 BKN022 16/14 Q1016 NOSIG;EQDQ01+000000PRSWM2
0102030140999992000122903004+60110-002060FM-12+001399999V0200601N011319999999N9999999N1+00251-00101100071ADDMD1410001+9999REMSYN076AAXX  29034 03014 46/// /0622 10025 21010 40007 54000 555 1//31 05014 07057;
0162029880999992000100909004+60090+025060FM-12+000599999V0201601N004612200019N0250001N1+01251+00981102491ADDAY111031AY211031GF102991001001999999001021MD1210041+9999MW1011REMSYN088AAXX  09094 02988 42975 21609 10125 20098 40249 52004 70111 80002 555 60110 785// 03511;
0140029630999992000101709004+60820+023500FM-12+010399999V0201501N002612200019N0250001N1+00871+00611102621ADDAY111031AY211031GF102991011061004501071001MD1710021+9999MW1021REMSYN066AAXX  17094 02963 42475 21505 10087 20061 40262 57002 70211 81670;
0172030080999992000061716004+59530-001620FM-12+005999999V0201601N00461000301CN0020001N1+01011+00991101651ADDAY151999AY221999GA1041+000309079GF108991081071000251999999MD1610201+9999MW1201REMSYN082AAXX  17164 03008 41020 81609 10101 20099 40165 56020 72052 887// 333 84701 88702;
0138030630999992000102303004+57190-003830FM-12+022099999V0202501N002110063019N0500001N1+00911+00561100281ADDGA1081+006309059GF108991081051008001999999MD1710321+9999REMSYN070AAXX  23034 03063 42584 82504 10091 20056 40028 57032 885// 333 88621;
0210030110999992000080116004+59110-005810FM-12+009899999V0201201N004619999999N9999999N1+01311+01051101121ADDMD1210021+9999REMSYN184AAXX  01164 03011 46/// /1209 10131 20105 40112 52002 555 05011 07123 10044 11114 12431 14775 15487 05012 07116 10039 11097 12413 14916 15489 71000 72730 73132 74291 75182 76133 77097;
0101030680999992000050816504+57720-003320FM-15+0013EGQS V0201401N00671220001CN0099001N1+02201+00601999999ADDMA1101901999999MW1001REMMET049EGQS 081650Z 14013KT CAVOK 22/06 Q1019 BLU NOSIG;EQDQ01+000000PRSWM2
0109030070999992000020303004+60580-001270FM-12+002299999V0202701N003619999999N9999999N1+00481+00161999999REMSYN100AAXX  03034 03007 46/// /2707 10048 20016 4//// 5//// 555 05012 07270 10071 11141 12348 14705 17000;
0106029740999992000092213504+60320+024970FM-15+0056EFHK V0202701N00211220001CN0099001N1+01601+00001999999ADDMA1103391999999MW1001REMMET054EFHK 221350Z 27004KT 230V320 CAVOK 16/M00 Q1034 NOSIG;EQDQ01+000000PRSWM2
0149030660999992000101603504+57650-003560FM-15+0007EGQK V0202501N004610087019N0112651N1+01101+00901999999ADDGA1071+008709999GF107991999999999999999999MA1100411999999MW1001REMMET055EGQK 160350Z 25009KT 9999 BKN029 11/09 Q1004 BLU NOSIG;EQDQ01+000000PRSWM2
0168029660999992000060803504+60900+026930FM-15+0100EFUT V0200801N000510006019N0035001N1+00801+00801999999ADDGA1081+000609999GF108991999999999999999999MA1100001999999MW1101MW2511REMMET052EFUT 080350Z 08001KT 3500 -DZ BR OVC002 08/08 Q1000;EQDQ01+000003PRSWM1Q02    003PRSWM1
0096030230999992000040420004+57330-007370FM-12+001099999V0203301N002619999999N0400001N1+00381+00041101611ADDMD1210131+9999REMSYN070AAXX  04204 03023 46/82 /3305 10038 20004 40161 52013 555 7/091 81/50;
0260030080999992000121806004+59530-001620FM-12+005999999V0201201N007210120019N0300001N1+00551+00261101181ADDAA112000591AY181061AY211061GA1031+005409089GA2031+012009069GF105991051081004501001001IA1099IA2999+00309KA1120N+00461MD1110021+9999MW1251REMSYN112AAXX  18064 03008 11480 51214 10055 20026 40118 51002 69952 72581 85800 333 20046 31003 83818 83640 90710 91129;
0150029170999992000021601194+63020+027800FM-15+0102EFKU V0201201N003610024019N0112651N1-00501-00601999999ADDGA1081+002409999GF108991999999999999999999MA1099901999999MW1001REMMET056EFKU 160119Z 12007KT 9999 OVC008 M05/M06 Q0999 33710195;EQDQ01+000000PRSWM2
0195029720999992000031810504+60520+022270FM-15+0059EFTU V0202501N001010123019N0112651N1+00201-00201999999ADDGA1021+005409999GA2021+009609999GA3071+012309999GF107991999999999999999999MA1102001999999MW1001REMMET069EFTU 181050Z 25002KT 9999 FEW018 SCT032 BKN041 02/M02 Q1020 2609//95;EQDQ01+000000PRSWM2
0205030220999992000121608504+57460-007370FM-15+0006EGPL V0201401N002110150019N0112651N1+00401+00301999999ADDGA1021+003009999GA2021+007509999GA3071+015009999GF107991999999999999999999MA1100811999999MW1611REMMET063EGPL 160850Z 14004KT 9999 -RA FEW010 SCT025 BKN050 04/03 Q1008;EQDQ01+000003PRSWM1Q02    003PRSWM1
0080030060999992000112804004+60440-001260FM-12+000899999V0201301N004619999999N9999999N1+00741+00441100161ADDMD1710081+9999REMSYN054AAXX  28044 03006 46/// /1309 10074 20044 40016 57008;
0257029450999992000022118004+61850+024800FM-12+0145EFHA V0209999C000012200019N0200001N1-01031-01181101961ADDAA199000091AJ100479199999999AY111061AY211061GF102991021061001501001001IA1239KA1120M-00611KA2120N-01241MD1710031+9999MW1031REMSYN104AAXX  21184 02945 32270 20000 11103 21118 40196 57003 70311 82600 333 11061 21124 47047 555 789// 80150;EQDQ01  00002PRCP99
0110029440999992000012709494+61420+023580FM-15+0112EFTP V0202601N00311220001CN0099001N1-00201-00401999999ADDMA1099801999999MW1001REMMET058EFTP 270949Z 26006KT 220V310 CAVOK M02/M04 Q0998 24390141;EQDQ01+000000PRSWM2
0193029720999992000102011504+60510+022260FM-15+0059EFTU V0201801N003610051019N0112651N1+01001+00801999999ADDGA1021+003909999GA2071+005109999GA3071+006009999GF107991999999999999999999MA1103011999999MW1001REMMET067EFTU 201150Z 18007KT 130V220 9999 FEW013 BKN017 BKN020 10/08 Q1030;EQDQ01+000000PRSWM2
0144030570999992000033014004+57270-004480FM-12+002199999V0200101N002110300019N0300001N1+00911+00491101821ADDGA1011+009009089GF107991031081012501071999MD1710171+9999REMSYN076AAXX  30144 03057 42680 70104 10091 20049 40182 57017 8387/ 333 81830 87360;
0092029135999992000022918504+63720+023150FM-15+0025EFKK V0201701N00361220001CN0099001N1+00001-00101999999ADDMA1098921999999MW1001REMMET040EFKK 291850Z 17007KT CAVOK 00/M01 Q0989;EQDQ01+000000PRSWM2
0096030620999992000050317004+57820-003970FM-12+0004EGQA V0201301N004619999999N0500001N1+01271+00461102901ADDMD1710101+9999REMSYN070AAXX  03174 03062 46984 /1309 10127 20046 40290 57010 555 80/99 91651;
0194030170999992000122813504+58940-002900FM-15+0021EGPA V0200701N006710660019N0112651N1+00201-00301999999ADDGA1021+004509099GA2021+012309999GA3071+066009999GF107991999999999999999999MA1099801999999MW1001REMMET068EGPA 281350Z 07013KT 9999 FEW015CB SCT041 BKN220 02/M03 Q0998 NOSIG;EQDQ01+000000PRSWM2
0108030440999992000112405004+58280-004430FM-12+008099999V0202201N003619999999N0550001N1+00571+00351099221ADDMD1710091+9999REMSYN082AAXX  24054 03044 46585 /2207 10057 20035 49922 57009 555 85/24 84/31 84/50 90452;
0220030030999992000012910504+59880-001300FM-15+0005EGPB V0202601N023110078019N0028001N1+00501+00301999999ADDGA1021+002709999GA2021+004209099GA3071+007809999GF107991999999999999999999MA1094891999999MW1801OC103701REMMET070EGPB 291050Z 26045G72KT 2800 -SHRA FEW009 SCT014CB BKN026 05/03 Q0949;EQDQ01+000003PRSWM1Q02    003PRSWM1
0273028690999992000051918004+65970+029180FM-12+0263EFKS V0201601N001012200019N0500001N1+01901+00501101051ADDAA199000091AJ199993999999999AY101061AY201061GF103991011001017501071021IA1259KA1120M+02161KA2120N+00991MD1510011+9999MW1021REMSYN104AAXX  19184 02869 32784 31602 10190 20050 40105 55001 70200 81072 333 10216 20099 41997 555 60117 740//;EQDQ01  00002PRCP99Q02  09982SNDP  
0204029740999992000070413504+60320+024970FM-15+0056EFHK V0202001N004112200019N0112651N1+02201+01001999999ADDGA1021+013509999GA2021+014409029GA3021+015009099GF102991999999999999999999MA1100711999999MW1001REMMET078EFHK 041350Z 20008KT 070V010 9999 FEW045 FEW048TCU FEW050CB 22/10 Q1007 NOSIG;EQDQ01+000000PRSWM2
0215030680999992000091411334+57710-003310FM-16+0013EGQS V0201001N003110150019N0112651N1+01301+01301999999ADDGA1021+004509999GA2071+015009999GA3071+066009999GF107991999999999999999999MA1100711999999MW1611REMMET073EGQS 141133Z 10006KT 9999 -RA FEW015 BKN050 BKN220 13/13 Q1007 BLU NOSIG;EQDQ01+000003PRSWM1Q02    003PRSWM1
0080030350999992000060405004+57030-007450FM-12+0003EGPR V0200701N005719999999N9999999N1+00981+00731101941ADDMD1710061+9999REMSYN054AAXX  04054 03035 46/// /0711 10098 20073 40194 57006;
0131030400999992000040512004+56770-006050FM-12+004599999V0201401N002612200019N0250001N1+00901+00031999999ADDGA1011+015009059GF101991011051017501999001REMSYN058AAXX  05124 03040 42775 11405 10090 20003 81500 333 81650;EQDQ01    003SCOMCG
0156029700999992000022708504+60120+019900FM-15+0006EFMA V0202201N005710012019N0112651N1+00201+00101999999ADDGA1081+001209999GF108991999999999999999999MA1101491999999MW1001REMMET062EFMA 270850Z 22011KT 190V260 9999 OVC004 02/01 Q1015 21CLRD95;EQDQ01+000000PRSWM2
0166030170999992000051907004+58950-002900FM-12+0021EGPA V0203001N00671006001CN0200001N1+00751+00511100181ADDGA1011+002109079GA2031+003009079GF107991071081002501999999MD1210121+9999REMSYN082AAXX  19074 03017 42370 73013 10075 20051 40018 52012 878// 333 81707 83710 86645;
0194030630999992000111909004+57190-003830FM-12+022099999V0202301N003610066019N0150001N1+00291+00081098611ADDAY171031AY221031GA1011+003609079GA2041+006609069GF107991061051004501999021MD1010031+9999MW1681REMSYN088AAXX  19094 03063 41465 72307 10029 20008 49861 50003 76872 865/2 333 81712 84622 85650;
0211030660999992000110206004+57650-003560FM-12+0007EGQK V0209999C000012200019N0300001N1-00171-00261098691ADDAA199000091GA1041+075009019GF104991001001999999001011IA1149IA2999-00409KA1120N-00201MD1710011+9999REMSYN082AAXX  02064 03066 32980 40000 11017 21026 49869 57001 80001 333 21020 34104 84075;EQDQ01  00002PRCP99
0114029110999992000062000004+63500+021760SAO  +0004EFVA V0209999C000012200019N9999999N1+99999+99999999999ADDAA199000021MW1001REMAWY085EFVA 200020Z AUTO 22006KT 190V260 9999 -SHRA FEW020 SCT024 BKN028 OVC120 12/11 Q1007;
0109029470999992000120217504+61730+027290SAO  +0138EFMI V0209999C000012200019N9999999N1+99999+99999999999ADDAA199000091MW1001REMAWY061EFMI 021750Z AUTO 14007KT 1800 -RA BKN001 BKN003 03/03 Q1008;EQDQ01  00002PRCP99
0169028970999992000112306504+64270+027680FM-15+0136EFKI V0201401N004610021019N0112651N1-00401-00501999999ADDGA1071+002109999GF107991999999999999999999MA1102401999999MW1711REMMET059EFKI 230650Z 14009KT 100V180 9999 -SN BKN007 M04/M05 Q1024;EQDQ01+000003PRSWM1Q02    003PRSWM1
0092029290999992000051717504+62670+029630FM-15+0117EFJO V0201001N00461220001CN0099001N1+01001-00101999999ADDMA1101391999999MW1001REMMET040EFJO 171750Z 10009KT CAVOK 10/M01 Q1014;EQDQ01+000000PRSWM2
0210030110999992000032716004+59120-005820FM-12+009899999V0200601N000519999999N9999999N1+00581-00281102841ADDMD1210041+9999REMSYN184AAXX  27164 03011 46/// /0601 10058 21028 40284 52004 555 05011 07060 10007 11031 12358 14275 15571 05012 07057 10005 11022 12351 14320 15575 71000 72682 73135 74290 75122 76135 77095;
0096030310999992000042013004+57720-004880FM-12+026599999V0201901N004119999999N0270001N1+01311+00411099371ADDMD1210081+9999REMSYN070AAXX  20134 03031 46777 /1908 10131 20041 49937 52008 555 82/50 91252;
0123029840999992000120121004+59920+024010FM-12+002199999V0202701N002619999999N9999999N1+00441+00391101311ADDMA1999999101171MD1210121+9999REMSYN082AAXX  01214 02984 46/// /2705 10044 20039 30117 40131 52012 92039 555 796// 0/506;
0100029245999992000110223504+62690+022820SAO  +0092EFSI V0209999C000012200019N9999999N1+99999+99999999999ADDAA199000021MW1001REMAWY071EFSI 022350Z AUTO 13007KT 9999 FEW004 SCT008 BKN012 BKN024 05/05 Q1003;
0172030060999992000100109004+60440-001260FM-12+000899999V0201101N00211000301CN0020001N1+01211+01211100291ADDAY161031AY251031GA1031+000159079GF108991081061000251999999MD1710101+9999MW1101REMSYN082AAXX  01094 03006 41020 81104 10121 20121 40029 57010 71065 886// 333 83700 88703;
0207029474999992000081814504+62170+027860FM-15+0087EFVR V0201501N001510270019N0112651N1+01801+01301999999ADDGA1021+011409999GA2021+015009999GA3071+027009999GF107991999999999999999999MA1100711999999MW1801REMMET065EFVR 181450Z 15003KT 9999 -SHRA SCT038 SCT055 BKN090 18/13 Q1007;EQDQ01+000003PRSWM1Q02    003PRSWM1
0198029290999992000030117504+62670+029630FM-15+0117EFJO V0201401N004610024019N0050001N1+00101+00001999999ADDGA1071+002409999GF107991999999999999999999KA1999M+02901MA1098611999999MW1611MW2711REMMET069EFJO 011750Z 14009KT 110V180 5000 -SNRA BKN008 01/M00 Q0986 10290095;EQDQ01+000003PRSWM1Q02    003PRSWM1
0170029110999992000091106504+63050+021760FM-15+0004EFVA V0202901N006712200019N0112651N1+01201+00601999999ADDGA1021+008409999GA2021+036009999GF104991999999999999999999MA1100201999999MW1001REMMET060EFVA 110650Z 29013KT 250V340 9999 FEW028 SCT120 12/06 Q1002;EQDQ01+000000PRSWM2
0144030260999992000081310004+58210-006310FM-12+0013EGPO V0201401N00361009001CN0750001N1+01551+01161101031ADDGA1011+005409089GF107991071081004501999021MD1110051+9999REMSYN076AAXX  13104 03026 42489 71407 10155 20116 40103 51005 878/2 333 81818 87657;
0096030470999992000030323004+56870-004700FM-12+023799999V0202401N002619999999N0250001N1-00191-00251101801ADDMD1210231+9999REMSYN070AAXX  03234 03047 46775 /2405 11019 21025 40180 52023 555 83/50 92251;
0172030700999992000062315004+57340-003340FM-12+021599999V0202901N004610060019N0350001N1+01121+00921100971ADDAY161031AY251031GA1061+006009069GF108991081051008001999999MD1210241+9999MW1601REMSYN082AAXX  23154 03070 41581 82909 10112 20092 40097 52024 76065 885// 333 86620 88645;
0173029740999992000121913504+60320+024970FM-15+0056EFHK V0203201N002610075019N0112651N1-00101-00501999999ADDGA1071+007509999GF107991999999999999999999MA1102611999999MW1001REMMET079EFHK 191350Z 32005KT 270V360 9999 BKN025 M01/M05 Q1026 NOSIG 1519//60 2219//54;EQDQ01+000000PRSWM2
0172030080999992000121921004+59530-001620FM-12+005999999V0201201N013410120019N0200001N1+00731+00481101771ADDGA1031+005409089GA2071+012009069GF107991071081004501999999MD1710131+9999REMSYN088AAXX  19214 03008 42470 71226 10073 20048 40177 57013 878// 333 83818 87640 90710 91143;
0051030410999992000041405004+56820-004970FM-12+113099999V0200501N011319999999N9999999N1-00551-00601999999REMSYN042AAXX  14054 03041 46/// /0522 11055 21060;
0185030680999992000112219504+57710-003310FM-15+0013EGQS V0202401N004110084019N0007001N1+00501+00501999999ADDGA1021+000309999GA2071+008409999GF107991999999999999999999MA1098211999999MW1441REMMET059EGQS 221950Z 24008KT 0700 FG FEW001 BKN028 05/05 Q0982 RED;EQDQ01+000003PRSWM1Q02    003PRSWM1
0109030070999992000110606004+60570-001260FM-12+002299999V0201601N005719999999N9999999N1+00831+00641999999REMSYN100AAXX  06064 03007 46/// /1611 10083 20064 4//// 5//// 555 05012 07163 10118 11179 12383 14838 17000;
0166030270999992000091621004+57420-006760FM-12+009299999V0202501N004110060019N0300001N1+01201+01121100901ADDAY151031AY221031GA1061+006009059GF106991061051008001999999MD1710061+9999MW1021REMSYN076AAXX  16214 03027 41580 62508 10120 20112 40090 57006 70252 865// 333 86620;
0139029520999992000012418504+61470+021800FM-15+0017EFPO V0201001N001012200019N0112651N1-01401-01501999999ADDGA1021+006909999GF102991999999999999999999MA1101901999999MW1001REMMET045EFPO 1850Z 10002KT 9999 FEW023 M14/M15 Q1019;EQDQ01+000000PRSWM2
0195030680999992000083015504+57710-003310FM-15+0013EGQS V0200901N004610750019N0112651N1+01601+01001999999ADDGA1021+010509999GA2021+045009999GA3071+075009999GF107991999999999999999999MA1101491999999MW1001REMMET069EGQS 301550Z 09009KT 9999 FEW035 SCT150 BKN250 16/10 Q1015 BLU NOSIG;EQDQ01+000000PRSWM2
0169029450999992000040405504+61850+024800FM-15+0145EFHA V0201401N003610009019N0030001N1-00101-00101999999ADDGA1081+000909999GF108991999999999999999999MA1100711999999MW1711REMMET059EFHA 040550Z 14007KT 080V220 3000 -SN OVC003 M01/M01 Q1007;EQDQ01+000003PRSWM1Q02    003PRSWM1
0099029350999992000062913504+62400+025680FM-15+0145EFJY V0200601N00411220001CN0099001N1+02801+01701999999ADDMA1100711999999MW1001REMMET047EFJY 291350Z 06008KT 360V100 CAVOK 28/17 Q1007;EQDQ01+000000PRSWM2
0183029810999992000062509004+59780+021380FM-12+000799999V0200801N002110210019N0150001N1+01561+01311101031ADDAY121031AY221031GF106991061001022501071001MA1999999100951MD1410001+9999MW1011REMSYN094AAXX  25094 02981 42865 60804 10156 20131 30095 40103 54001 70122 86070 555 60141 781// 01004;
0123029100999992000021403004+63430+021070FM-12+000899999V0202601N002119999999N0500001N1-00101-00161099191ADDMA1999999099051MD1210141+9999REMSYN082AAXX  14034 02910 45/99 /2604 11010 21016 39905 49919 52014 90239 555 796// 0/505;
0143030440999992000013023004+58280-004430FM-12+008099999V0203001N010819999999N0100001N1+00571+00251999999ADDMD1210682+9999REMSYN082AAXX  30234 03044 46560 /3021 10057 20025 49908 52068 555 1//46 83/25 84/35 92251;EQDQ01+099083APOSLPQ02+000682APC3  
0089029480999992000061710004+61940+028950SAO  +0095EFSA V0209999C000012200019N9999999N1+99999+99999999999ADDMW1001REMAWY071EFSA 170950Z AUTO 35007KT 280V050 9999 -SHRA SCT032 BKN050 08/05 Q1012;
0162029350999992000102121504+62400+025680FM-15+0145EFJY V0201701N003110057019N0112651N1+00601+00401999999ADDGA1021+004209999GA2071+005709999GF107991999999999999999999MA1102611999999MW1001REMMET052EFJY 212150Z 17006KT 9999 SCT014 BKN019 06/04 Q1026;EQDQ01+000000PRSWM2
0115029740999992000032222504+60320+024970FM-15+0056EFHK V0202601N00211220001CN0099001N1-00101-00501999999ADDMA1100201999999MW1001REMMET063EFHK 2250Z 26004KT CAVOK M01/M05 Q1002 NOSIG1509//69 2209// 62;EQDQ01+000000PRSWM2
0144030080999992000121307004+59530-001620FM-12+005999999V0202701N00571002101CN0200001N1+00841+00751096441ADDGA1031+002409079GF108991081071002501999999MD1610331+9999REMSYN076AAXX  13074 03008 42370 82711 10084 20075 49644 56033 887// 333 83708 88712;
0139029520999992000111711504+61460+021790FM-15+0017EFPO V0201201N001510087019N0112651N1+00401+00301999999ADDGA1071+008709999GF107991999999999999999999MA1102101999999MW1001REMMET045EFPO 171150Z 12003KT 9999 BKN029 04/03 Q1021;EQDQ01+000000PRSWM2
0156029720999992000042103004+60520+022270FM-12+0059EFTU V0203001N000510003019N0003001N1+00391+00391101611ADDGA1091+999999999GF109991091999999999999999MD1210061+9999REMSYN088AAXX  21034 02972 4/103 93001 10039 20039 40161 52006 73331 89/// 90251 555 700// 0/004;
0222030080999992000022521004+59530-001630FM-12+005999999V0202301N011810360019N0200001N1+00631+00491101271ADDAY181031AY221031GA1041+005409089GA2031+036009039GA3071+066009009GF107991051081004501081021MD1110051+9999MW1251REMSYN100AAXX  25214 03008 41470 72323 10063 20049 40127 51005 72582 85882 333 84818 83362 87072 90710 91133;
0146028690999992000110115004+65970+029180FM-12+0263EFKS V0201001N002119999999N0018001N1-00231-00311100581ADDGF108991081999002501999999MD1210071+9999REMSYN094AAXX  01154 02869 4/318 81004 11023 21031 40058 52007 77177 88/// 91451 555 794// 80274 0/008;
0173030680999992000011411504+57720-003320FM-15+0013EGQS V0200201N006210132019N0112651N1+00401-00201999999ADDGA1021+009609999GA2071+013209999GF107991999999999999999999MA1103391999999MW1001REMMET063EGQS 141150Z 02012KT 9999 FEW032 BKN044 04/M02 Q1034 BLU NOSIG;EQDQ01+000000PRSWM2
0070029480999992000040123004+61950+028950SAO  +0095EFSA V0203201N000512200019N9999999N1+99999+99999999999ADDMW1001REMAWY052EFSA 012250Z AUTO 32013KT 9999 BKN018 M01/M05 Q1000;
0183029810999992000092200004+59780+021380FM-12+000799999V0201401N003112200019N0300001N1+01091+00701103371ADDAY101061AY201061GF104991041001017501071001MA1999999103281MD1210121+9999MW1021REMSYN094AAXX  22004 02981 42780 41406 10109 20070 30328 40337 52012 70200 84070 555 60089 775// 02207;
0172030050999992000040921004+60130-001180FM-12+008499999V0202801N004610003019N0040001N1+00671+00671102201ADDAY161031AY251031GA1021+000159079GF108991081061000251999999MD1610031+9999MW1501REMSYN082AAXX  09214 03005 41040 82809 10067 20067 40220 56003 75065 886// 333 82700 88701;
0118030400999992000041515004+56770-006050FM-12+004599999V0201801N010310120019N0250001N1+00801-00111999999ADDGA1021+006009089GF105991051081008001001001REMSYN064AAXX  15154 03040 42575 51820 10080 21011 85800 333 82820 85640;
0096030440999992000071111004+58280-004430FM-12+008099999V0203301N006719999999N0190001N1+01021+00351100811ADDMD1210021+9999REMSYN070AAXX  11114 03044 46669 /3313 10102 20035 40081 52002 555 87/37 91051;
0096030440999992000041517004+58280-004430FM-12+008099999V0201401N007219999999N0280001N1+00661-00041099631ADDMD1210061+9999REMSYN070AAXX  15174 03044 46778 /1414 10066 21004 49963 52006 555 87/50 91652;
0139030064999992000102005504+60420-001290FM-15+0022EGPM V0201901N006212200019N0112651N1+00801+00601999999ADDGA1021+003609999GF102991999999999999999999MA1101391999999MW1001REMMET045EGPM 200550Z 19012KT 9999 FEW012 08/06 Q1014;EQDQ01+000000PRSWM2
0239029420999992000052506004+61850+022470FM-12+013699999V0201801N001510012019N0150001N1+01061+01041100631ADDAA112005191AY161061AY241061GF108991081061001501999999IA1099IA2999+00909KA1120M+01511KA2120N+00961MD1210011+9999MW1021REMSYN110AAXX  25064 02942 11265 81803 10106 20104 40063 52001 60052 70264 886// 333 10151 20096 31009 555 60105 79908;
0222030080999992000100417004+59530-001620FM-12+005999999V0201601N010810270019N0180001N1+01151+00891100481ADDAY161999AY221999GA1011+003609079GA2041+012009069GA3071+027009049GF107991041051004501021999MD1810021+9999MW1601REMSYN100AAXX  04174 03008 41468 71621 10115 20089 40048 58002 76062 8452/ 333 81712 84640 87459 90710 91131;
0193029474999992000093007204+62170+027860FM-15+0087EFVR V0202301N003110072019N0060001N1+01301+01101999999ADDGA1021+003009999GA2071+007209999GA3081+030009999GF108991999999999999999999MA1102101999999MW1001REMMET067EFVR 300720Z 23006KT 180V270 6000 SCT010 BKN024 OVC100 13/11 Q1021;EQDQ01+000000PRSWM2
0102030620999992000091410004+57820-003960FM-12+0004EGQA V0200601N002619999999N0600001N1+01221+99999100741ADDMD1210041+9999REMSYN076AAXX  14104 03062 46686 /0605 10122 20123 40074 52004 555 81/33 82/40 90952;
0138030170999992000062619004+58940-002900FM-12+0021EGPA V0203301N004112200019N0750001N1+01051+00541102581ADDGA1031+006609029GF104991041081008001001001MD1310011+9999REMSYN070AAXX  26194 03017 42589 43308 10105 20054 40258 53001 84800 333 83822;
0096030230999992000122519004+57320-007370FM-12+001099999V0200301N004119999999N0300001N1+00081-00031100931ADDMD1710101+9999REMSYN070AAXX  25194 03023 46/80 /0308 10008 21003 40093 57010 555 7/090 80/99;
0103029470999992000031014004+61730+027300SAO  +0138EFMI V0203101N000512200019N9999999N1+99999+99999999999ADDMW1001REMAWY085EFMI 101350Z AUTO 31012KT 270V350 1800 -SN FEW010 SCT015 BKN018 OVC030 M04/M06 Q0999;
0108030100999992000090602004+59070-004390FM-12+001699999V02099999999999999999N9999999N1+01371+01291100191ADDMD1710421+9999REMSYN082AAXX  06024 03010 46/// /11// 10137 20129 40019 57042 555 05333 07114 10000 11000;
0139029700999992000090117504+60110+019900FM-15+0006EFMA V0203501N000512200019N0112651N1+01201+01001999999ADDGA1021+008409999GF102991999999999999999999MA1100611999999MW1001REMMET045EFMA 011750Z 35001KT 9999 FEW028 12/10 Q1006;EQDQ01+000000PRSWM2
0209029135999992000053120504+63720+023150FM-15+0025EFKK V0201601N001510150019N0112651N1+00701+00601999999ADDGA1021+010809999GA2071+015009099GA3071+024009999GF107991999999999999999999MA1100911999999MW1801REMMET067EFKK 312050Z 16003KT 9999 -SHRA SCT036 BKN055CB BKN080 07/06 Q1009;EQDQ01+000003PRSWM1Q02    003PRSWM1
0080030060999992000052111004+60450-001270FM-12+000899999V0201601N004619999999N9999999N1+01071+00551100761ADDMD1710051+9999REMSYN054AAXX  21114 03006 46/// /1609 10107 20055 40076 57005;
0140029820999992000070409004+59760+022950FM-12+001199999V0201901N001012200019N0200001N1+01941+01391100881ADDAY101031AY201031GF101991011021008001001011MD1210101+9999MW1031REMSYN066AAXX  04094 02982 42570 11902 10194 20139 40088 52010 70300 81201;
0092029750999992000081221004+60250+025040SAO  +0028EFHF V0209999C000012200019N9999999N1+99999+99999999999ADDMW1001REMAWY074EFHF 122050Z AUTO 32002KT 4500 RA FEW007 SCT011 BKN029 OVC043 15/14 Q1010;
0081029135999992000080404504+63710+023150FM-15+0025EFKK V0200801N001012200019N0112651N1+99999+99999999999ADDMW1001REMMET044EFKK 040450Z 08002KT 9999 CAVOK 14/12 Q1012;EQDQ01+000000PRSWM2
0144030570999992000100506004+57260-004480FM-12+002199999V0202001N00211004201CN0300001N1+00631+00541101011ADDGA1011+005409079GF106991051051004501071001MD1310101+9999REMSYN076AAXX  05064 03057 42480 62004 10063 20054 40101 53010 85570 333 81718 85630;
0170029290999992000021518504+62670+029630FM-15+0117EFJO V0202301N002610021019N0112651N1-00401-00501999999ADDGA1081+002109999GF108991999999999999999999KA1999M+99999MA1100001999999MW1001REMMET063EFJO 1850Z 23005KT 190V270 9999 OVC007 M04/M05 Q1000 107101 73;EQDQ01+000000PRSWM2
0149030660999992000111614504+57650-003560FM-15+0007EGQK V0202201N003112200019N0112651N1+00701+00201999999ADDGA1021+006009999GF102991999999999999999999MA1099391999999MW1001REMMET055EGQK 161450Z 22006KT 9999 FEW020 07/02 Q0994 BLU NOSIG;EQDQ01+000000PRSWM2
0061030650999992000020403004+57120-003630FM-12+124599999V0202701N027219999999N9999999N1+99999+99999999999REMSYN052AAXX  04034 03065 46/// /2753 1//// 2//// 555 1//78;
0136030340999992000052818004+57870-005630FM-12+001199999V0200101N005719999999N0260001N1+00891+00801100531ADDAA112007991KA1120M+01021MD1210151+9999REMSYN086AAXX  28184 03034 16676 /0111 10089 20080 40053 52015 60082 333 10102 555 87/44 91751;
0088029580999992000021602004+61080+028150SAO  +0105EFLP V0209999C000012200019N9999999N1+99999+99999999999ADDMW1001REMAWY070EFLP 160150Z AUTO 12003KT 4300 -SN FEW007 SCT010 BKN019 M03/M03 Q0999;
0170028970999992000020908474+64280+027680FM-15+0136EFKI V0202501N001010003019N0010001N1-00701-00701999999ADDGA1081+000309999GF108991999999999999999999MA1098511999999MW1441REMMET060EFKI 090847Z 25002KT 1000 FG OVC001 M07/M07 Q0985 RMK VV002;EQDQ01+000003PRSWM1Q02    003PRSWM1
0125030440999992000101200004+58280-004430FM-12+008099999V0200401N005719999999N0150001N1+00921+00791098051ADDAA106003091MD1210071+9999REMSYN088AAXX  12004 03044 16365 /0411 10092 20079 49805 52007 60031 555 86/08 82/16 83/25 92352;
0118030310999992000112009004+57710-004870FM-12+026599999V0209999C000019999999N0400001N1+00301+00141099171ADDIA2999+00109MD1210121+9999REMSYN080AAXX  20094 03031 46482 /0000 10030 20014 49917 52012 333 3/001 555 87/17 90851;
0151030660999992000021605504+57650-003570FM-15+0007EGQK V0202401N004112200019N0112651N1-00101-00401999999ADDGA1021+006009999GF102991999999999999999999MA1099091999999MW1001REMMET057EGQK 160550Z 24008KT 9999 FEW020 M01/M04 Q0991 BLU NOSIG;EQDQ01+000000PRSWM2
0096030370999992000072016004+57250-005800FM-12+001899999V0202301N006219999999N0110001N1+01751+01021102481ADDMD1210011+9999REMSYN070AAXX  20164 03037 46/61 /2312 10175 20102 40248 52001 555 7/090 80/99;
0185030260999992000052012504+58220-006320FM-15+0013EGPO V0201501N004110210019N0112651N1+01101+00501999999ADDGA1021+006009999GA2071+021009999GA3071+060009999GF107991999999999999999999MA1100811999999MW1001REMMET059EGPO 201250Z 15008KT 9999 FEW020 BKN070 BKN200 11/05 Q1008;EQDQ01+000000PRSWM2
0080030140999992000081804004+60110-002060FM-12+001399999V0209999C000019999999N9999999N1+01161+00961100621ADDMD1410001+9999REMSYN054AAXX  18044 03014 46/// /0000 10116 20096 40062 54000;
0166030660999992000031607004+57650-003570FM-12+0007EGQK V0202401N00771030001CN0250001N1+00941+00341102941ADDGA1011+007509089GA2031+015009069GF107991031081008001031021MD1310031+9999REMSYN082AAXX  16074 03066 42575 72415 10094 20034 40294 53003 83832 333 81825 83650 87075;
0091029135999992000011804504+63720+023150FM-15+0025EFKK V0200201N00821220001CN0099001N1-00701-01001999999ADDMA1099391999999MW1001REMMET039EFKK 0450Z 02016KT CAVOK M07/M10 Q0994;EQDQ01+000000PRSWM2
0244028690999992000081921004+65970+029180SY-SA+0263EFKS V0209999C000012200019N0070001N1+01071+00981100681ADDGF107991071999000751999999MD1710031+9999MW1001REMSYN094AAXX  19214 02869 4/157 70000 10107 20098 40068 57003 76160 87/// 92051 555 794// 80091 0/002;AWY067EFKS 192050Z AUTO 00000KT 7000 RA FEW003 BKN005 BKN032 11/10 Q1006;EQDQ01+000990PRSWM4
0162028970999992000082403504+64270+027680FM-15+0136EFKI V0209999C000010240019N0112651N1+01001+00901999999ADDGA1021+003009999GA2081+024009999GF108991999999999999999999MA1100411999999MW1001REMMET052EFKI 240350Z 00000KT 9999 FEW010 OVC080 10/09 Q1004;EQDQ01+000000PRSWM2
0144029660999992000012906504+60900+026930FM-15+0100EFUT V0201301N001512200019N0112651N1-01001-01201999999ADDGA1021+000609999GF102991999999999999999999MA1099191999999MW1001REMMET050EFUT 0650Z AUTO 13003KT 9999 FEW002 M10/M12 Q0992;EQDQ01+000000PRSWM2
0170029474999992000121419504+62170+027860FM-15+0087EFVR V0202101N002610015019N0112651N1+00301+00301999999ADDGA1071+001509999GA2081+002409999GF108991999999999999999999MA1099391999999MW1001REMMET060EFVR 141950Z 21005KT 180V250 9999 BKN005 OVC008 03/03 Q0994;EQDQ01+000000PRSWM2
0162030260999992000122106504+58210-006310FM-15+0013EGPO V0200801N001510081019N0112651N1+00801+00601999999ADDGA1071+008109999GA2081+014409999GF108991999999999999999999MA1101491999999MW1001REMMET052EGPO 210650Z 08003KT 9999 BKN027 OVC048 08/06 Q1015;EQDQ01+000000PRSWM2
0147029450999992000071708504+61840+024790FM-15+0145EFHA V0201601N003112200019N0112651N1+02101+01201999999ADDGA1021+010509999GF104991999999999999999999MA1101291999999MW1001REMMET053EFHA 170850Z 16006KT 110V210 9999 SCT035 21/12 Q1013;EQDQ01+000000PRSWM2
0144030270999992000091207004+57420-006760FM-12+009299999V0209999C000010450019N0300001N1+01101+01001100981ADDGA1051+045009039GF107991051001999999071011MD1510041+9999REMSYN076AAXX  12074 03027 42980 70000 10110 20100 40098 55004 85071 333 85365 87075;
0140029050999992000010115004+63920+024970FM-12+008199999V0201401N000512200019N0150001N1-01701-01891102021ADDAY101031AY201031GF102991021061001501001001MD1810011+9999MW1021REMSYN066AAXX  01154 02905 42265 21401 11170 21189 40202 58001 70200 82600;
0096030470999992000070610004+56860-004690FM-12+023799999V0209999C000019999999N0300001N1+01091+00491102111ADDMD1210041+9999REMSYN070AAXX  06104 03047 46680 /0000 10109 20049 40211 52004 555 87/31 90951;
0149029120999992000090518004+63090+021570FM-12+001499999V0209999C000019999999N9999999N1+00891+00321101591ADDKA1120M+01291KA2999N+00891MA1999999101351MD1410001+9999REMSYN082AAXX  05184 02912 46/// /0000 10089 20032 30135 40159 54001 91739 333 10129 20089;
0267030170999992000122620004+58940-002900FM-12+0021EGPA V0202701N00211018001CN0250001N1-00181-00261099511ADDAJ100039199999999AY121999AY221999GA1011+001809079GA2011+004509099GA3031+018009069GA4061+036009039GF107991031091002501061999IA1279MD1710111+9999MW1151REMSYN106AAXX  26204 03017 41375 72704 11018 21026 49951 57011 71522 8396/ 333 43003 81706 81915 83656 86362 92760;
0170029480999992000090114504+61940+028950FM-15+0095EFSA V0202901N002610150019N0112651N1+01601+01201999999ADDGA1021+005709999GA2071+015009999GF107991999999999999999999MA1100311999999MW1001REMMET060EFSA 011450Z 29005KT 260V340 9999 FEW019 BKN050 16/12 Q1003;EQDQ01+000000PRSWM2
0102030440999992000082117004+58280-004430FM-12+008099999V0200801N004619999999N0270001N1+01431+00671101611ADDMD1210091+9999REMSYN076AAXX  21174 03044 46677 /0809 10143 20067 40161 52009 555 84/45 87/57 90842;
0236029820999992000090706004+59760+022950FM-12+001199999V0201601N001510750019N0300001N1+01201+00491101531ADDAA199000091AY111061AY211061GF105991021011008001071081IA1019IA2999+00309KA1120M+01201KA2120N+00621MD1210051+9999MW1031REMSYN088AAXX  07064 02982 32580 51603 10120 20049 40153 52005 70311 82178 333 10120 20062 30003;EQDQ01  00002PRCP99
0278029650999992000041718004+60970+025630FM-12+008499999V0202301N000510042019N0070001N1+00651+00371101151ADDAA112001091AJ199993999999999AY121061AY221061GF108991051071004501021999IA1259KA1120M+00871KA2120N+00351MA1999999100171MD1210221+9999MW1101REMSYN110AAXX  17184 02965 11457 82301 10065 20037 30017 40115 52022 60012 71022 8572/ 333 10087 20035 41997 555 782/0;EQDQ01  09982SNDP  
0061030410999992000060905004+56820-004970FM-12+113099999V0202101N014419999999N9999999N1+00171+00171999999REMSYN052AAXX  09054 03041 46/// /2128 10017 20017 555 1//41;
0166030570999992000010508004+57270-004480FM-12+002199999V0202201N004610090019N0300001N1+00491+00271099201ADDAY161999AY261999GA1081+009009059GF108991081051012501999999MD1710411+9999MW1611REMSYN076AAXX  05084 03057 41680 82209 10049 20027 49920 57041 76166 885// 333 88630;
0069029450999992000041020004+61850+024800SAO  +0145EFHA V0209999C000019999999N9999999N1+99999+99999999999ADDMW1001REMAWY051EFHA 101950Z AUTO 15002KT 9999 OVC029 04/M01 Q1010;
0156029240999992000061509004+62530+024220FM-12+0161EFHT V0202701N001510075019N0250001N1+01141+00131100031ADDAY111031AY211031GF105991051021008001001001MD1310031+9999MW1021REMSYN082AAXX  15094 02924 42575 52703 10114 20013 40003 53003 70211 85200 555 60068 747//;
0123030230999992000090819004+57320-007370FM-12+001099999V0202501N013419999999N0200001N1+01301+00731100781ADDMD1310171+9999OA140101851REMSYN086AAXX  08194 03023 46/70 /2526 10130 20073 40078 53017 333 90710 91136 555 7/091 81/32;
0102030100999992000020102004+59080-004400FM-12+001699999V0201301N011819999999N9999999N1+00711+00621099871ADDMD1710361+9999REMSYN076AAXX  01024 03010 46/// /1323 10071 20062 49987 57036 555 1//31 05333 07127;
0109030070999992000091708004+60570-001260FM-12+002299999V0202301N001019999999N9999999N1+01101+01061999999REMSYN100AAXX  17084 03007 46/// /2302 10110 20106 4//// 5//// 555 05012 07226 10026 11052 12410 14999 17000;
0193029810999992000032312004+59780+021380FM-12+000799999V0203101N004612200019N0300001N1+00181-00221100511ADDAY101061AY201061GA1001+999999999GF100991001001999999001001MA1999999100431MD1210031+9999MW1021REMSYN088AAXX  23124 02981 42980 03109 10018 21022 30043 40051 52003 70200 555 60003 766// 03109;
0152029450999992000021516504+61850+024800FM-15+0145EFHA V0201401N002110015019N0112651N1-00401-00501999999ADDGA1071+001509999GF107991999999999999999999MA1099901999999MW1001REMMET058EFHA 1650Z AUTO 14004KT 090V190 9999 BKN005 M04/M05 Q0999;EQDQ01+000000PRSWM2
0191029440999992000012514504+61420+023580FM-15+0112EFTP V0201601N001510060019N0015001N1-00701-00701999999ADDGA1021+003009999GA2081+006009999GF108991999999999999999999MA1100611999999MW1731REMMET065EFTP 1450Z 16003KT 1500 SN SCT010 OVC020 M07/M07 Q1006 244905 25;EQDQ01+000003PRSWM1Q02    003PRSWM1
0075029480999992000062720004+61940+028950SAO  +0095EFSA V0209999C000019999999N9999999N1+99999+99999999999ADDMW1001REMAWY057EFSA 272020Z AUTO 23001KT 9999 FEW019 OVC070 15/14 Q1005;
0166030270999992000082411004+57420-006760FM-12+009299999V0202501N001510036019N0020001N1+01521+01401102421ADDAY151999AY221999GA1081+003609069GF108991081061004501999999MD1110091+9999MW1201REMSYN076AAXX  24114 03027 41420 82503 10152 20140 40242 51009 72052 886// 333 88712;
0193030170999992000052005504+58950-002900FM-15+0021EGPA V0201901N002610180019N0112651N1+00701+00501999999ADDGA1021+003609999GA2021+004509099GA3071+018009999GF107991999999999999999999MA1100911999999MW1001REMMET067EGPA 200550Z 19005KT 9999 FEW012 FEW015CB BKN060 07/05 Q1009 NOSIG;EQDQ01+000000PRSWM2
0096030020999992000042803004+60750-000850FM-12+001599999V0201301N005719999999N9999999N1+00751+00681101641ADDMD1210011+9999REMSYN070AAXX  28034 03002 461// /1311 10075 20068 40164 52001 555 88/02 90250;
0118030550999992000112709004+58860-003370FM-12+002099999V0202301N00511220001CN0400001N1+00691+00411999999ADDGA1011+004509089GF107991011081004501001011REMSYN064AAXX  27094 03055 42482 72310 10069 20041 81801 333 81815 87070;
0162029130999992000092915004+63090+023020FM-12+0044EFKA V0201801N001510021019N0070001N1+01191+01141101431ADDAY151031AY221031GF108991081071002501999999MD1010031+9999MW1501REMSYN088AAXX  29154 02913 41357 81803 10119 20114 40143 50003 75052 887// 555 60116 792// 80210;
0156029730999992000061609004+60400+023760FM-12+008699999V0203301N002110042019N0300001N1+01311+00561100411ADDAY111031AY211031GF105991051031004501001001MD1110061+9999MW1011REMSYN082AAXX  16094 02973 42480 53304 10131 20056 40041 51006 70111 85300 555 60093 757//;
0146029130999992000123118504+63090+023020FM-15+0044EFKA V0200901N002610039019N0112651N1-00201-00301999999ADDGA1081+003909999GF108991999999999999999999MA1100811999999MW1001REMMET052EFKA 311850Z AUTO 09005KT 9999 OVC013 M02/M03 Q1008;EQDQ01+000000PRSWM2
0204030260999992000122010504+58210-006310FM-15+0013EGPO V0201601N003110036019N0090001N1+00701+00601999999ADDGA1021+002109999GA2071+003609999GA3081+013509999GF108991999999999999999999MA1100511999999MW1631REMMET062EGPO 201050Z 16006KT 9000 RA FEW007 BKN012 OVC045 07/06 Q1005;EQDQ01+000003PRSWM1Q02    003PRSWM1
0063030230999992000031211004+57330-007370FM-12+001099999V02099999999999999999N9999999N1+99999+99999999999REMSYN054AAXX  12114 03023 46/// ///// 1//// 2//// 4//// 5////;
0195029290999992000090910504+62670+029630FM-15+0117EFJO V0202401N004610600019N0112651N1+01401+01001999999ADDGA1021+006009999GA2021+009009099GA3071+060009999GF107991999999999999999999MA1100411999999MW1001REMMET069EFJO 091050Z 24009KT 210V270 9999 SCT020 SCT030CB BKN200 14/10 Q1004;EQDQ01+000000PRSWM2
0096030370999992000072215004+57250-005800FM-12+001899999V0200101N001519999999N0110001N1+01841+01291102521ADDMD1710071+9999REMSYN070AAXX  22154 03037 46/61 /0103 10184 20129 40252 57007 555 7/090 80/99;
0144030630999992000102617004+57190-003830FM-12+022099999V0202501N00101009001CN0400001N1+00711+00531100521ADDGA1011+003609079GF105991051081004501001021MD1210181+9999REMSYN076AAXX  26174 03063 42482 52502 10071 20053 40052 52018 85802 333 81712 83638;
0091028750999992000051918504+64930+025370FM-15+0015EFOU V0201401N00511220001CN0099001N1+01901+00301999999ADDMA1100811999999MW1001REMMET039EFOU 191850Z 14010KT CAVOK 19/03 Q1008;EQDQ01+000000PRSWM2
0102030230999992000071917004+57320-007370FM-12+001099999V0202601N006719999999N0280001N1+01371+01051101991ADDMD1210031+9999REMSYN076AAXX  19174 03023 46/78 /2613 10137 20105 40199 52003 555 7/098 81/17 87/23;
0109030070999992000052508004+60580-001270FM-12+002299999V0201601N002119999999N9999999N1+00991+00891999999REMSYN100AAXX  25084 03007 46/// /1604 10099 20089 4//// 5//// 555 05012 07157 10043 11071 12399 14938 17000;
0096030060999992000112807004+60440-001260FM-12+000899999V0201401N007219999999N9999999N1+00861+00601099971ADDMD1710191+9999REMSYN070AAXX  28074 03006 46/// /1414 10086 20060 49997 57019 333 90710 91126;
0108030310999992000112003004+57710-004870FM-12+026599999V0202901N004119999999N0260001N1+00221+00111099091ADDMD1210091+9999REMSYN082AAXX  20034 03031 46376 /2908 10022 20011 49909 52009 555 85/08 82/13 86/16 90251;
0108030620999992000072004004+57820-003960FM-12+0004EGQA V0202401N002119999999N0230001N1+01111+00951102071ADDMD1210051+9999REMSYN082AAXX  20044 03062 46573 /2404 10111 20095 40207 52005 555 85/24 81/60 81/64 90352;
0163029520999992000112103504+61460+021790FM-15+0017EFPO V0200801N007210045019N0112651N1+00101-00201999999ADDGA1071+004509999GA2071+006009999GF107991999999999999999999MA1102401999999MW1001REMMET053EFPO 210350Z 08014KT 9999 BKN015 BKN020 01/M02 Q1024;EQDQ01+000000PRSWM2
0162029130999992000060600004+63100+023030FM-12+0044EFKA V0203201N001010120019N0300001N1+00781+00621101711ADDAY111061AY211061GF108991081041012501999999MD1410001+9999MW1021REMSYN088AAXX  06004 02913 42680 83202 10078 20062 40171 54000 70211 884// 555 60070 786// 81400;
0123029840999992000092112004+59920+024010FM-12+002199999V0200801N004119999999N9999999N1+01151+00441103131ADDMA1999999102981MD1210091+9999REMSYN082AAXX  21124 02984 46/// /0808 10115 20044 30298 40313 52009 91139 555 761// 0/409;
0096030350999992000031323004+57030-007450FM-12+0003EGPR V0202801N009319999999N9999999N1+00671+00241102041ADDMD1710041+9999REMSYN070AAXX  13234 03035 46/// /2818 10067 20024 40204 57004 333 90710 91128;
0096030370999992000080203004+57250-005800FM-12+001899999V0200901N003119999999N0180001N1+01241+00971100791ADDMD1710151+9999REMSYN070AAXX  02034 03037 46/68 /0906 10124 20097 40079 57015 555 7/098 88/56;
0178029474999992000111516504+62170+027860FM-15+0087EFVR V0200901N000510009019N0003001N1+00201+00201999999ADDED199U08009GA1081+000909999GF108991999999999999999999MA1100811999999MW1441REMMET057EFVR 151650Z 09001KT 0300 R14/0800 FG OVC003 02/02 Q1008;EQDQ01+000003PRSWM1Q02    003PRSWM1
0091029520999992000062115504+61460+021790FM-15+0017EFPO V0202401N00151220001CN0099001N1+02401+00601999999ADDMA1101291999999MW1001REMMET039EFPO 211550Z 24003KT CAVOK 24/06 Q1013;EQDQ01+000000PRSWM2
0102030310999992000102108004+57710-004870FM-12+026599999V0202801N004119999999N0400001N1+00661+00541101331ADDMD1210291+9999REMSYN076AAXX  21084 03031 46582 /2808 10066 20054 40133 52029 555 82/25 83/41 90751;
0170029700999992000120914504+60110+019900FM-15+0006EFMA V0202501N002110054019N0112651N1+00601+00401999999ADDGA1021+003009999GA2071+005409999GF107991999999999999999999MA1100511999999MW1001REMMET060EFMA 091450Z 25004KT 210V300 9999 SCT010 BKN018 06/04 Q1005;EQDQ01+000000PRSWM2
0162030220999992000083109504+57460-007370FM-15+0006EGPL V0201901N007212200019N0112651N1+01501+01301999999ADDGA1021+004509999GA2021+009009999GF104991999999999999999999MA1099491999999MW1001REMMET052EGPL 310950Z 19014KT 9999 SCT015 SCT030 15/13 Q0995;EQDQ01+000000PRSWM2
0102030440999992000090616004+58280-004430FM-12+008099999V0202801N008719999999N0200001N1+01411+00691100311ADDMD1210171+9999REMSYN076AAXX  06164 03044 46670 /2817 10141 20069 40031 52017 555 81/38 84/50 91552;
0096030470999992000062221004+56860-004690FM-12+023799999V0202801N004619999999N0180001N1+01071+00841100321ADDMD1210151+9999REMSYN070AAXX  22214 03047 46468 /2809 10107 20084 40032 52015 555 87/14 92051;
0075028970999992000092620504+64270+027680SAO  +0136EFKI V0209999C000012200019N9999999N1+99999+99999999999ADDMW1001REMAWY057EFKI 262050Z AUTO 00000KT 9999 BKN030 BKN048 06/05 Q1026;
0108030110999992000020204004+59120-005820FM-12+009899999V0202701N020019999999N9999999N1+00131-00201099621ADDMD1710221+9999REMSYN082AAXX  02044 03011 46/// /2739 10013 21020 49962 57022 555 1//73 05011 07279 10196;
0144030260999992000092415004+58210-006310FM-12+0013EGPO V0201301N00621030001CN0400001N1+01741+01281101081ADDGA1011+013509069GF107991011051012501041021MD1210091+9999REMSYN076AAXX  24154 03026 42682 71312 10174 20128 40108 52009 81542 333 81645 86072;
0108030230999992000100914004+57320-007370FM-12+001099999V0203501N002619999999N0024001N1+00691+00621099151ADDMD1710161+9999REMSYN082AAXX  09144 03023 46/24 /3505 10069 20062 49915 57016 555 7/098 83/03 85/17 86/29;
0214030660999992000021717004+57650-003570FM-12+0007EGQK V0201401N003110390019N0500001N1+00241-00161100251ADDAJ199992999999999GA1011+013509069GA2051+039009039GF107991011051012501071021IA1259MD1710271+9999REMSYN088AAXX  17174 03066 42684 71406 10024 21016 40025 57027 81572 333 41998 81645 85363 85075;EQDQ01  09972SNDP  
0146029450999992000021111504+61850+024800FM-15+0145EFHA V0202301N004110048019N0112651N1+00201+00001999999ADDGA1071+004809999GF107991999999999999999999MA1099391999999MW1001REMMET052EFHA 1150Z 23008KT 180V270 9999 BKN016 02/M00 Q0994;EQDQ01+000000PRSWM2
0102030620999992000071113004+57820-003960FM-12+0004EGQA V0203201N006719999999N0450001N1+01241+00421100871ADDMD1210051+9999REMSYN076AAXX  11134 03062 46683 /3213 10124 20042 40087 52005 555 85/36 87/48 91252;
0096030370999992000051521004+57250-005800FM-12+001899999V0201901N002619999999N0250001N1+01371+00721100731ADDMD1710171+9999REMSYN070AAXX  15214 03037 46/75 /1905 10137 20072 40073 57017 555 7/090 80/99;
0099029450999992000060504504+61850+024800FM-15+0145EFHA V0202901N00411220001CN0099001N1+00901+00401999999ADDMA1101191999999MW1001REMMET047EFHA 050450Z 29008KT 230V320 CAVOK 09/04 Q1012;EQDQ01+000000PRSWM2
0239029450999992000062606004+61840+024790FM-12+0145EFHA V0203601N001510012019N0150001N1+01521+01461100391ADDAA112002091AY161061AY221061GF108991081071001501001999IA1119IA2999+01409KA1120M+02091KA2120N+01421MD1810181+9999MW1611REMSYN110AAXX  26064 02945 11265 83603 10152 20146 40039 58018 60022 76162 8870/ 333 10209 20142 32014 555 79622 80150;
0195029580999992000020418484+61080+028150FM-15+0105EFLP V0202201N004610066019N0112651N1+00001+00001999999ADDGA1021+002109999GA2021+003609999GA3071+006609999GF107991999999999999999999MA1098611999999MW1001REMMET069EFLP 041848Z 22009KT 190V260 9999 FEW007 SCT012 BKN022 M00/M00 Q0986;EQDQ01+000000PRSWM2
0240028970999992000021506004+64280+027680FM-12+0136EFKI V0202601N001010021019N0080001N1-00451-00541099871ADDAA112000891AJ100619199999999AY171061AY221061GF108991081071002501999999IA2999-00509KA1120M-00201KA2120N-00421MD1210051+9999MW1701REMSYN100AAXX  15064 02897 11358 82602 11045 21054 49987 52005 69982 77072 887// 333 11020 21042 3/105 47061;
0079029450999992000120209504+61840+024790SAO  +0145EFHA V0209999C000019999999N9999999N1+99999+99999999999ADDMW1001REMAWY061EFHA 020950Z AUTO 18007KT 140V230 1200 BR OVC001 02/02 Q1010;
0096030370999992000080123004+57250-005800FM-12+001899999V0201001N001019999999N0160001N1+01191+01061100961ADDMD1710021+9999REMSYN070AAXX  01234 03037 46/66 /1002 10119 20106 40096 57002 555 7/097 87/56;
0102030020999992000042115004+60750-000850FM-12+001599999V0201901N006719999999N0160001N1+01151+00781099981ADDMD1210071+9999REMSYN076AAXX  21154 03002 46266 /1913 10115 20078 49998 52007 555 86/03 82/50 91450;
0090029474999992000021403004+62170+027870SAO  +0087EFVR V0209999C000012200019N9999999N1+99999+99999999999ADDMW1001REMAWY072EFVR 140250Z AUTO 19002KT 9999 -SHSN FEW007 BKN013 BKN045 M00/M01 Q0995;
0102030310999992000032719004+57720-004880FM-12+026599999V0200701N000519999999N0210001N1+00371-00121102801ADDMD1210171+9999REMSYN076AAXX  27194 03031 46671 /0701 10037 21012 40280 52017 555 83/35 84/62 91852;
0096030370999992000081307004+57250-005800FM-12+001899999V0201901N001019999999N0210001N1+01291+01121101081ADDMD1210071+9999REMSYN070AAXX  13074 03037 46/71 /1902 10129 20112 40108 52007 555 7/097 87/28;
0172029110999992000071609504+63500+021760FM-15+0004EFVA V0201001N003112200019N0112651N1+02101+01501999999ADDGA1021+006609999GA2021+012009099GF104991999999999999999999MA1100201999999MW1001REMMET062EFVA 160950Z 10006KT 060V140 9999 FEW022 SCT040CB 21/15 Q1002;EQDQ01+000000PRSWM2
0108030020999992000072817004+60750-000850FM-12+001599999V0203401N003619999999N0048001N1+01241+01201101291ADDMD1410001+9999REMSYN082AAXX  28174 03002 46148 /3407 10124 20120 40129 54000 555 86/02 85/12 84/17 91650;
0224028750999992000030706004+64930+025370FM-12+0015EFOU V0203001N001010042019N0200001N1-00661-00781097531ADDAA112003091AJ100809199999999AY171061AY221061GF108991081051004501999999IA1239IA2999-00709MD1719999+9999MW1021REMSYN104AAXX  07064 02875 11470 83002 11066 21078 49753 57/// 60032 70272 885// 333 3/107 47080 555 79105 80450;
0172030630999992000012023004+57200-003830FM-12+022099999V0201901N001010036019N0180001N1+00411+00321103521ADDAY161999AY221999GA1051+003609079GF107991071051004501999999MD1110071+9999MW1601REMSYN082AAXX  20234 03063 41468 71902 10041 20032 40352 51007 76062 875// 333 85712 87630;
0172030080999992000050917004+59530-001630FM-12+005999999V0203401N00461000601CN0040001N1+00871+00791102221ADDAY121999AY221999GA1041+000609079GF108991081061000751999999MD1110061+9999MW1101REMSYN082AAXX  09174 03008 41140 83409 10087 20079 40222 51006 71022 886// 333 84702 88705;
0147029720999992000100305504+60510+022260FM-15+0059EFTU V0201501N004610018019N0060001N1+01301+01201999999ADDGA1071+001809999GF107991999999999999999999MA1101081999999MW1001REMMET053EFTU 030550Z 15009KT 110V180 6000 BKN006 13/12 Q1011;EQDQ01+000000PRSWM2
0102030310999992000102516004+57710-004870FM-12+026599999V0202701N010319999999N0070001N1+00741+00491099361ADDMD1210401+9999REMSYN076AAXX  25164 03031 46557 /2720 10074 20049 49936 52040 555 86/22 82/34 91551;
0099029135999992000071112504+63710+023150FM-15+0025EFKK V0201401N00361220001CN0099001N1+02101+00201999999ADDMA1100711999999MW1001REMMET047EFKK 111250Z 14007KT 100V170 CAVOK 21/02 Q1007;EQDQ01+000000PRSWM2
0108030100999992000020520004+59080-004400FM-12+001699999V0202301N012919999999N9999999N1+00991+00901100011ADDMD1410001+9999REMSYN082AAXX  05204 03010 46/// /2325 10099 20090 40001 54000 555 1//37 05333 07229 10123;
0215029750999992000031613504+60250+025050FM-15+0028EFHF V0203401N007710057019N0035001N1-00101-00301999999ADDGA1021+003009999GA2071+005709999GA3071+010509999GF107991999999999999999999MA1100511999999MW1711REMMET073EFHF 161350Z 34015KT 310V010 3500 -SN FEW010 BKN019 BKN035 M01/M03 Q1005;EQDQ01+000003PRSWM1Q02    003PRSWM1
0102029800999992000120315004+59960+019970FM-12+001099999V0202301N004619999999N9999999N1+00671+00531101261ADDMD1710051+9999REMSYN076AAXX  03154 02980 46/// /2309 10067 20053 40126 57005 222// 555 791// 0/511;
0100028750999992000011315504+64930+025370FM-15+0015EFOU V0201701N00101220001CN0099001N1-00701-00801999999ADDMA1100911999999MW1001REMMET048EFOU 1550Z 17002KT CAVOK M07/M08 Q1009 1239//47;EQDQ01+000000PRSWM2
0102030370999992000111615004+57250-005800FM-12+001899999V0202501N006219999999N0170001N1+00711+00411099431ADDMD1610051+9999REMSYN076AAXX  16154 03037 46/67 /2512 10071 20041 49943 56005 555 7/097 83/21 85/33;
0126030620999992000032812004+57820-003970FM-12+0004EGQA V0202001N003619999999N0300001N1+00821-00011103001ADDAA199000091MD1710011+9999REMSYN070AAXX  28124 03062 36780 /2007 10082 21001 40300 57001 555 87/56 91151;EQDQ01  00002PRCP99
0156029240999992000080300004+62530+024220FM-12+0161EFHT V0209999C000012200019N0060001N1+00831+00731101141ADDAY101061AY201061GF102991001001999999001011MD1810061+9999MW1101REMSYN082AAXX  03004 02924 41956 20000 10083 20073 40114 58006 71000 80001 555 60078 793//;
0166030260999992000050811004+58220-006320FM-12+0013EGPO V0201601N002112200019N0030001N1+01021+00891102131ADDAY141999AY211999GA1011+000309069GF101991011061000251001001MD1810021+9999MW1281REMSYN076AAXX  08114 03026 41030 11604 10102 20089 40213 58002 72841 81600 333 81701;
0154029660999992000122015504+60900+026930FM-15+0100EFUT V0203101N003110021019N0112651N1-00301-00501999999ADDGA1081+002109999GF108991999999999999999999MA1102811999999MW1001REMMET060EFUT 201550Z AUTO 31006KT 240V360 9999 OVC007 M03/M05 Q1028;EQDQ01+000000PRSWM2
0099029520999992000090419504+61460+021790FM-15+0017EFPO V0203501N00311220001CN0099001N1+01001+00401999999ADDMA1101191999999MW1001REMMET047EFPO 041950Z 35006KT 320V030 CAVOK 10/04 Q1012;EQDQ01+000000PRSWM2
0173029720999992000021813504+60520+022270FM-15+0059EFTU V0202701N002110075019N0112651N1-00201-00401999999ADDGA1021+005409999GA2071+007509999GF107991999999999999999999MA1100411999999MW1001REMMET063EFTU 181350Z 27004KT 9999 FEW018 BKN025 M02/M04 Q1004 26290195;EQDQ01+000000PRSWM2
0090030340999992000082815004+57860-005620FM-12+001199999V0200301N002619999999N9999999N1+01661+01521101791ADDMD1210011+9999REMSYN064AAXX  28154 03034 46/// /0305 10166 20152 40179 52001 555 91451;
0093029474999992000022315504+62170+027870FM-15+0087EFVR V0202901N00101220001CN0099001N1-01701-01801999999ADDMA1102611999999MW1001REMMET041EFVR 231550Z 29002KT CAVOK M17/M18 Q1026;EQDQ01+000000PRSWM2
0137029520999992000041611504+61470+021800FM-15+0017EFPO V02099999999992200019N0112651N1+01001+00201999999ADDGA1021+010509999GF102991999999999999999999MA1100711999999MW1001REMMET043EFPO 1150Z VRB05KT 9999 FEW035 10/02 Q1007;EQDQ01+000000PRSWM2
0096030440999992000122613004+58280-004430FM-12+008099999V0209999C000019999999N0160001N1-00111-00261099891ADDMD1710171+9999REMSYN070AAXX  26134 03044 46766 /0000 11011 21026 49989 57017 555 84/50 91253;
0096030350999992000102015004+57030-007440FM-12+0003EGPR V0201601N021119999999N9999999N1+00901+00741099801ADDMD1710251+9999REMSYN070AAXX  20154 03035 46/// /1641 10090 20074 49980 57025 333 90710 91158;
0198029720999992000040618004+60520+022270FM-12+0059EFTU V0202501N001012200019N0500001N1+00111-00381101531ADDGA1001+999999999GF100991001001999999001001KA1120M+00481KA2120N+00041MD1210181+9999REMSYN104AAXX  06184 02972 4/984 02502 10011 21038 40153 52018 70000 80/// 91751 333 10048 20004 555 770// 0/012;
0172030050999992000100419004+60130-001180FM-12+008499999V0202601N00821004201CN0100001N1+00881+00781100581ADDAY161999AY261999GA1031+005409069GF108991081051004501999999MD1310081+9999MW1611REMSYN082AAXX  04194 03005 41460 82616 10088 20078 40058 53008 76166 885// 333 83618 88635;
0096030620999992000112601004+57820-003960FM-12+0004EGQA V0209999C000019999999N0070001N1+00061-00051097511ADDMD1710021+9999REMSYN070AAXX  26014 03062 46757 /0000 10006 21005 49751 57002 555 83/50 90052;
0124029350999992000070221004+62400+025680FM-12+0145EFJY V0200701N001019999999N0500001N1+01691+01051100781ADDGF107991051999022501999999MD1410001+9999REMSYN072AAXX  02214 02935 4/884 70702 10169 20105 40078 54000 70000 85/// 92050;
0162030030999992000051617504+59880-001300FM-15+0005EGPB V0202301N003610210019N0112651N1+01001+00901999999ADDGA1021+010509999GA2071+021009999GF107991999999999999999999MA1100311999999MW1001REMMET052EGPB 161750Z 23007KT 9999 FEW035 BKN070 10/09 Q1003;EQDQ01+000000PRSWM2
0150029700999992000122011504+60110+019900FM-15+0006EFMA V0202701N000512200019N0112651N1-00401-00501999999ADDGA1021+007509999GF102991999999999999999999MA1103181999999MW1001REMMET056EFMA 201150Z 27001KT 9999 FEW025 M04/M05 Q1032 0339//54;EQDQ01+000000PRSWM2
0051030650999992000042811004+57120-003630FM-12+124599999V02099999999999999999N9999999N1+00131+00111999999REMSYN042AAXX  28114 03065 46/// ///// 10013 20011;
0080030060999992000110401004+60440-001260FM-12+000899999V0202801N004119999999N9999999N1+00741+00561098551ADDMD1310101+9999REMSYN054AAXX  04014 03006 46/// /2808 10074 20056 49855 53010;
0102030440999992000040916004+58280-004430FM-12+008099999V0203601N001519999999N0250001N1+00951+00321102311ADDMD1710081+9999REMSYN076AAXX  09164 03044 46575 /3603 10095 20032 40231 57008 555 84/28 87/34 91552;
0228029190999992000041118004+62680+030950FM-12+016599999V0201601N000510042019N0150001N1+00201+00001101321ADDAA112000191AJ100799199999999AY151061AY221061GF108991051051004501071999IA1279KA1120M+00331KA2120N+00201MD1310031+9999MW1011REMSYN094AAXX  11184 02919 11465 81601 10020 20000 40132 53003 69922 70152 8557/ 333 10033 20020 43079;
0144029800999992000112806004+59960+019970FM-12+001099999V0201801N003119999999N9999999N1+00471+00331101281ADDKA1120M+00481KA2120N+00321MD1710081+9999REMSYN092AAXX  28064 02980 46/// /1806 10047 20033 40128 57008 222// 333 10048 20032 555 791// 0/509;
0080030060999992000081117004+60440-001260FM-12+000899999V0202601N003619999999N9999999N1+01191+01061101291ADDMD1710011+9999REMSYN054AAXX  11174 03006 46/// /2607 10119 20106 40129 57001;
0166029350999992000052318004+62400+025680FM-12+0145EFJY V0201601N000512200019N0500001N1+01201+01011101231ADDGF101991011999999999999999KA1120M+01251KA2999N+00901MD1710041+9999REMSYN088AAXX  23184 02935 4/984 11601 10120 20101 40123 57004 70060 81/// 91750 333 10125 20090;
0096030680999992000022003004+57720-003320FM-12+0013EGQS V0201801N000519999999N0300001N1-00221-00251102561ADDMD1210011+9999REMSYN070AAXX  20034 03068 46/80 /1801 11022 21025 40256 52001 555 7/090 80/99;
0080030140999992000110222004+60110-002060FM-12+001399999V0201801N005719999999N9999999N1+00911+00351098681ADDMD1210141+9999REMSYN054AAXX  02224 03014 46/// /1811 10091 20035 49868 52014;
0091029350999992000051801504+62400+025680FM-15+0145EFJY V0201401N00361220001CN0099001N1+00601+00301999999ADDMA1101081999999MW1001REMMET039EFJY 180150Z 14007KT CAVOK 06/03 Q1011;EQDQ01+000000PRSWM2
0164029130999992000112207504+63090+023020FM-15+0044EFKA V0201001N005110039019N0112651N1-00601-00801999999ADDGA1071+003909999GA2081+006009999GF108991999999999999999999MA1102911999999MW1001REMMET054EFKA 220750Z 10010KT 9999 BKN013 OVC020 M06/M08 Q1029;EQDQ01+000000PRSWM2
0100029720999992000050617504+60520+022270FM-15+0059EFTU V0203101N00311220001CN0099001N1+01001-00301999999ADDMA1102301999999MW1001REMMET048EFTU 061750Z 31006KT 260V020 CAVOK 10/M03 Q1023;EQDQ01+000000PRSWM2
0080030110999992000082813004+59110-005810FM-12+009899999V0200601N004619999999N9999999N1+01201+00901102081ADDMD1210061+9999REMSYN054AAXX  28134 03011 46/// /0609 10120 20090 40208 52006;
0091029440999992000090219504+61420+023570FM-15+0112EFTP V0201901N00151220001CN0099001N1+01101+01001999999ADDMA1100511999999MW1001REMMET039EFTP 021950Z 19003KT CAVOK 11/10 Q1005;EQDQ01+000000PRSWM2
0162029880999992000020300004+60100+025070FM-12+000599999V0203301N002119999999N0250001N1-00501-00591098971ADDAY171061AY221061GF106991001001999999001081MD1210101+9999MW1021REMSYN088AAXX  03004 02988 41975 63304 11050 21059 49897 52010 70272 80008 555 61051 796// 02405;
0213029110999992000102205504+63050+021760FM-15+0004EFVA V0202001N006210036019N0050001N1+01001+00901999999ADDGA1021+002409999GA2071+003609999GA3081+006009999GF108991999999999999999999MA1101191999999MW1611REMMET071EFVA 220550Z 20012KT 170V230 5000 -RA FEW008 BKN012 OVC020 10/09 Q1012;EQDQ01+000003PRSWM1Q02    003PRSWM1
0109030070999992000051415004+60580-001270FM-12+002299999V0201301N002619999999N9999999N1+01251+00981999999REMSYN100AAXX  14154 03007 46/// /1305 10125 20098 4//// 5//// 555 05012 07132 10049 11105 12425 14774 17000;
0170029170999992000091010504+63010+027790FM-15+0102EFKU V0202301N005710600019N0112651N1+01501+00801999999ADDGA1021+007509999GA2071+060009999GF107991999999999999999999MA1100101999999MW1001REMMET060EFKU 101050Z 23011KT 200V270 9999 FEW025 BKN200 15/08 Q1001;EQDQ01+000000PRSWM2
0242030050999992000040416004+60130-001180FM-12+008499999V0202901N00511006001CN0060001N1+00201-00341100811ADDAJ199992999999999AY181999AY221999GA1011+002409079GA2031+004209089GF106991061081002501999999IA1259MD1710101+9999MW1851REMSYN094AAXX  04164 03005 41356 62910 10020 21034 40081 57010 78582 868// 333 41998 81708 83814 85632;EQDQ01  09972SNDP  
0213029700999992000071206504+60110+019900FM-15+0006EFMA V0201601N003610300019N0112651N1+01701+01601999999ADDGA1021+001809999GA2021+002409999GA3071+030009999GF107991999999999999999999MA1099901999999MW1511REMMET071EFMA 120650Z 16007KT 130V220 9999 -DZ FEW006 SCT008 BKN100 17/16 Q0999;EQDQ01+000003PRSWM1Q02    003PRSWM1
0080030140999992000082214004+60110-002060FM-12+001399999V0202901N004619999999N9999999N1+01271+00811102201ADDMD1210041+9999REMSYN054AAXX  22144 03014 46/// /2909 10127 20081 40220 52004;
0153030260999992000021214504+58220-006320FM-15+0013EGPO V0202501N012912200019N0112651N1+00301-00201999999ADDGA1021+004509099GF104991999999999999999999MA1099191999999MW1001OC101801REMMET051EGPO 121450Z 25025G35KT 9999 SCT015CB 03/M02 Q0992;EQDQ01+000000PRSWM2
0051030650999992000071122004+57110-003620FM-12+124599999V02099999999999999999N9999999N1-00021-00021999999REMSYN042AAXX  11224 03065 46/// ///// 11002 21002;
0108030020999992000032305004+60750-000850FM-12+001599999V0203501N004619999999N0300001N1+00091-00471101771ADDMD1210081+9999REMSYN082AAXX  23054 03002 46380 /3509 10009 21047 40177 52008 555 81/06 81/15 87/38 90450;
0171030590999992000102307504+57530-004050FM-15+0009EGPE V0202001N002612200019N0112651N1+01001+00801999999ADDGA1021+002409999GA2021+007509999GF104991999999999999999999MA1099801999999MW1001REMMET061EGPE 230750Z 20005KT 160V230 9999 FEW008 SCT025 10/08 Q0998 ;EQDQ01+000000PRSWM2
0139029135999992000090106504+63710+023150FM-15+0025EFKK V0202801N001010060019N0080001N1+01401+01101999999ADDGA1071+006009999GF107991999999999999999999MA1100711999999MW1001REMMET045EFKK 010650Z 28002KT 8000 BKN020 14/11 Q1007;EQDQ01+000000PRSWM2
0166029580999992000110220504+61070+028150FM-15+0105EFLP V0202001N002610003019N0030001N1+00501+00501999999ADDGA1071+000309999GF107991999999999999999999MA1100611999999MW1101REMMET056EFLP 022050Z 20005KT 160V240 3000 BR BKN001 05/05 Q1006;EQDQ01+000003PRSWM1Q02    003PRSWM1
0156028690999992000042912004+65970+029180FM-12+0263EFKS V0203201N003110075019N0500001N1+00491-00191102121ADDAY121061AY221061GF107991071051008001001001MD1310071+9999MW1031REMSYN082AAXX  29124 02869 42584 73206 10049 21019 40212 53007 70322 87500 555 60022 758//;
0187030680999992000080900504+57710-003310FM-15+0013EGQS V0201401N000512200019N0070001N1+01301+01301999999ADDGA1021+018009999GA2021+075009999GF104991999999999999999999MA1101491999999MW1121REMMET061EGQS 090050Z 14001KT 7000 MIFG FEW060 SCT250 13/13 Q1015 WHT;EQDQ01+000003PRSWM1Q02    003PRSWM1
0162029700999992000072112504+60110+019900FM-15+0006EFMA V0200301N003010210019N0112651N1+01801+01501999999ADDGA1021+009609999GA2071+021009999GF107991999999999999999999MA1101901999999MW1001REMMET052EFMA 211250Z 03003KT 9999 FEW032 BKN070 18/15 Q1019;EQDQ01+000000PRSWM2
0091029130999992000092902504+63090+023020FM-15+0044EFKA V0201501N00411220001CN0099001N1+00901+00701999999ADDMA1101391999999MW1001REMMET039EFKA 290250Z 15008KT CAVOK 09/07 Q1014;EQDQ01+000000PRSWM2
0156029420999992000051815004+61850+022470FM-12+013699999V0201401N003110210019N0200001N1+02201+00671100541ADDAY151031AY221031GF108991081001022501011999MD1710031+9999MW1031REMSYN082AAXX  18154 02942 41870 81406 10220 20067 40054 57003 70352 8801/ 555 60136 736//;
0209029290999992000071805504+62670+029630FM-15+0117EFJO V0200801N003110270019N0112651N1+02001+01701999999ADDGA1021+013509099GA2021+015009999GA3071+027009999GF107991999999999999999999MA1100811999999MW1801REMMET067EFJO 180550Z 08006KT 9999 -SHRA FEW045CB SCT050 BKN095 20/17 Q1008;EQDQ01+000003PRSWM1Q02    003PRSWM1
0141030064999992000021708504+60430-001300FM-15+0022EGPM V02099999999992200019N0112651N1+00001-00301999999ADDGA1021+007509999GF104991999999999999999999MA1100201999999MW1001REMMET047EGPM 170850Z VRB03KT 9999 SCT025 M00/M03 Q1002;EQDQ01+000000PRSWM2
0123029840999992000061603004+59920+024200FM-12+002199999V0203001N002119999999N9999999N1+00891+00671100441ADDMA1999999100301MD1410001+9999REMSYN082AAXX  16034 02984 46/// /3004 10089 20067 30030 40044 54002 90239 555 786// 0/606;
0150029820999992000091000004+59760+022950FM-12+001199999V0202701N004612200019N0300001N1+01451+01081100921ADDAY101061AY201061GA1001+999999999GF100991001001999999001001MD1710031+9999MW1021REMSYN060AAXX  10004 02982 42980 02709 10145 20108 40092 57003 70200;
0144029900999992000062918004+60300+020750FM-12+000599999V0200101N004619999999N9999999N1+01711+01341100261ADDKA1120M+01861KA2120N+01051MD1710141+9999REMSYN092AAXX  29184 02990 46/// /0109 10171 20134 40026 57014 222// 333 10186 20105 555 779// 0/111;
0174030260999992000012909504+58220-006320FM-15+0013EGPO V0202701N020612200019N0112651N1+00501+00101999999ADDGA1021+004209099GF104991999999999999999999MA1097091999999MW1801OC103141REMMET056EGPO 290950Z 27040G61KT 9999 -SHRA SCT014CB 05/01 Q0971;EQDQ01+000003PRSWM1Q02    003PRSWM1
0155030620999992000021606004+57820-003970FM-12+0004EGQA V0202501N003119999999N0300001N1-00081-00161099141ADDAA199000091KA1120N-00121MD1210051+9999REMSYN086AAXX  16064 03062 36680 /2506 11008 21016 49914 52005 333 21012 555 82/32 83/37 90551;EQDQ01  00002PRCP99
0198030170999992000050110504+58950-002900FM-15+0021EGPA V0200201N004610036019N0112651N1+00801+00501999999ADDGA1021+002409999GA2021+003009999GA3081+003609999GF108991999999999999999999MA1102811999999MW1001REMMET072EGPA 011050Z 02009KT 9999 FEW008 SCT010 OVC012 08/05 Q1028 TEMPO BKN010;EQDQ01+000000PRSWM2
0124029580999992000120615004+61070+028150FM-12+0105EFLP V0202201N003119999999N0080001N1+00651+00591101861ADDGF107991071999001501999999MD1210031+9999REMSYN072AAXX  06154 02958 4/258 72206 10065 20059 40186 52003 70011 87/// 91451;
0213028750999992000081208504+64930+025360FM-15+0015EFOU V0200901N002110180019N0070001N1+01301+01201999999ADDGA1021+008409999GA2021+009909999GA3071+018009999GF107991999999999999999999MA1100911999999MW1611REMMET071EFOU 120850Z 09004KT 060V130 7000 -RA FEW028 SCT033 BKN065 13/12 Q1009;EQDQ01+000003PRSWM1Q02    003PRSWM1
0140029820999992000102312004+59760+022950FM-12+001199999V0202201N001512200019N0300001N1+01201+00611102411ADDAY101061AY201061GF103991011051008001011011MD1710051+9999MW1021REMSYN066AAXX  23124 02982 42580 32203 10120 20061 40241 57005 70200 81511;
0132030140999992000020204004+60120-002070FM-12+001399999V0203101N013919999999N9999999N1+00471+00191099091ADDMD1710281+9999REMSYN106AAXX  02044 03014 46/// /3127 10047 20019 49909 57028 555 1//44 05014 07309 10284 11468 12347 14742 15442;
0146028970999992000121618504+64270+027680FM-15+0136EFKI V0200801N001010117019N0112651N1-00201-00301999999ADDGA1081+011709999GF108991999999999999999999MA1100511999999MW1001REMMET052EFKI 161850Z AUTO 08002KT 9999 OVC039 M02/M03 Q1005;EQDQ01+000000PRSWM2
0144030680999992000091911004+57710-003310FM-12+0013EGQS V0201501N00621075001CN0500001N1+01471+00701100111ADDGA1011+007509089GF105991011081008001071021MD1010081+9999REMSYN076AAXX  19114 03068 42584 51512 10147 20070 40011 50008 81872 333 81825 83072;
0091029110999992000011118504+63050+021770FM-15+0004EFVA V0201701N00101220001CN0099001N1-00201-00201999999ADDMA1101391999999MW1001REMMET039EFVA 1850Z 17002KT CAVOK M02/M02 Q1014;EQDQ01+000000PRSWM2
0172030080999992000051616004+59530-001630FM-12+005999999V0202201N00621030001CN0150001N1+00991+00871100391ADDAY161999AY221999GA1011+003009079GF108991021051004501021999MD1510021+9999MW1211REMSYN082AAXX  16164 03008 41465 82212 10099 20087 40039 55002 72162 8252/ 333 81710 88465;
0115030070999992000031512004+60580-001270FM-12+002299999V0203201N011819999999N9999999N1+00551+00151999999REMSYN106AAXX  15124 03007 46/// /3223 10055 20015 4//// 5//// 555 1//31 05012 07323 10243 11331 12355 14632 17000;
0099028970999992000073007004+64270+027680FM-15+0136EFKI V0201101N00261220001CN0099001N1+02001+01001999999ADDMA1101191999999MW1001REMMET047EFKI 300659Z 11005KT 060V150 CAVOK 20/10 Q1012;EQDQ01+000000PRSWM2
0101030660999992000061614504+57650-003560FM-15+0007EGQK V0200101N00461220001CN0099001N1+01901+01001999999ADDMA1102511999999MW1001REMMET049EGQK 161450Z 01009KT CAVOK 19/10 Q1025 BLU NOSIG;EQDQ01+000000PRSWM2
0124029580999992000112221004+61070+028150FM-12+0105EFLP V0201201N001519999999N0100001N1-00471-00551103011ADDGF108991081999001501999999MD1710021+9999REMSYN072AAXX  22214 02958 4/260 81203 11047 21055 40301 57002 70000 88/// 92051;
0267029650999992000081406004+60960+025630FM-12+008499999V0209999C000012200019N0060001N1+01511+01401102121ADDAA199000091AY111061AY211061GF102991011001017501031021IA1019IA2999+00509KA1120M+01741KA2120N+00911MA1999999101161MD1210061+9999MW1101REMSYN104AAXX  14064 02965 31756 20000 10151 20140 30116 40212 52006 71011 81032 333 10174 20091 30005 555 7934/;EQDQ01  00002PRCP99
0076029135999992000120202504+63710+023150SAO  +0025EFKK V0209999C000019999999N9999999N1+99999+99999999999ADDMW1001REMAWY058EFKK 020250Z AUTO 15005KT 110V180 6000 OVC002 01/00 Q1010;
0146029290999992000112615004+62670+029630FM-12+0117EFJO V0201801N002119999999N0200001N1-00221-00381101971ADDGF108991081999002501999999MD1710021+9999REMSYN094AAXX  26154 02929 4/370 81804 11022 21038 40197 57002 70000 88/// 91448 555 789// 80274 0/107;
0147029440999992000042510504+61420+023580FM-15+0112EFTP V0201901N006710099019N0112651N1+01801+01101999999ADDGA1071+009909999GF107991999999999999999999MA1100611999999MW1001REMMET053EFTP 251050Z 19013KT 150V230 9999 BKN033 18/11 Q1006;EQDQ01+000000PRSWM2
0172030680999992000121507504+57710-003310FM-15+0013EGQS V0203201N007710150019N0112651N1+00301+00001999999ADDGA1021+006909999GA2071+015009999GF107991999999999999999999MA1100711999999MW1001REMMET062EGQS 150750Z 32015KT 9999 FEW023 BKN050 03/00 Q1007 BLU NOSIG;EQDQ01+000000PRSWM2
0102030620999992000091703004+57820-003960FM-12+0004EGQA V0202201N003619999999N0600001N1+01141+01121100641ADDMD1710071+9999REMSYN076AAXX  17034 03062 46686 /2207 10114 20112 40064 57007 555 81/36 82/41 90252;
0147029470999992000101217504+61730+027290FM-15+0138EFMI V0201201N006210063019N0112651N1+00901+00501999999ADDGA1071+006309999GF107991999999999999999999MA1101901999999MW1001REMMET053EFMI 121750Z 12012KT 090V160 9999 BKN021 09/05 Q1019;EQDQ01+000000PRSWM2
0096030470999992000080120004+56860-004690FM-12+023799999V0209999C000019999999N0150001N1+01441+01101100931ADDMD1710021+9999REMSYN070AAXX  01204 03047 46665 /0000 10144 20110 40093 57002 555 87/43 91950;
0150030350999992000110406004+57030-007440FM-12+0003EGPR V0202901N010819999999N9999999N1+00871+00641099481ADDAA112004191IA2999+00509KA1120N+00731MD1610031+9999REMSYN088AAXX  04064 03035 16/// /2921 10087 20064 49948 56003 60042 333 20073 3/005 90710 91134;
0140030064999992000030914504+60430-001300FM-15+0022EGPM V0203301N003610105019N0112651N1+00401-00301999999ADDGA1071+010509999GF107991999999999999999999MA1102201999999MW1001REMMET046EGPM 091450Z 33007KT 9999 BKN035 04/M03 Q1022;EQDQ01+000000PRSWM2
0248029840999992000073106004+59920+024010FM-12+002199999V0202501N001012200019N0300001N1+01621+01221101091ADDAA112000791AY101061AY201061GF102991021031017501041071IA1019KA1120M+01701KA2120N+01301MA1999999100951MD1410001+9999MW1011REMSYN116AAXX  31064 02984 12780 22502 10162 20122 30095 40109 54000 69902 70100 82347 333 10170 20130 30/// 555 777/0 00604;
0112030550999992000121818004+58860-003370FM-12+002099999V0201801N004612200019N0300001N1+00561+00291999999ADDGA1011+004509029GF101991011011004501001011REMSYN058AAXX  18184 03055 42480 11809 10056 20029 81101 333 81815;
0194030680999992000112302004+57710-003310FM-12+0013EGQS V0202401N006710096019N0400001N1+00571+00431098611ADDAY161999AY221999GA1021+006009069GA2051+009609069GF107991071051008001999999MD1110221+9999MW1211REMSYN088AAXX  23024 03068 41582 72413 10057 20043 49861 51022 72162 875// 333 82620 85632 87650;
0172030660999992000021114004+57650-003570FM-12+0007EGQK V0202201N010310750019N0300001N1+00951+00201100691ADDGA1021+009009069GA2061+075009009GF107991031051012501041011MD1710211+9999REMSYN088AAXX  11144 03066 42680 72220 10095 20020 40069 57021 83541 333 82630 86075 90710 91131;
0150030580999992000102600004+57670-004170FM-12+000399999V0202501N008212200019N0300001N1+00751+00331099811ADDGA1041+006009089GF104991041021008001001001MD1210141+9999REMSYN082AAXX  26004 03058 42580 42516 10075 20033 49981 52014 84200 333 84820 90710 91126;
0211028690999992000122804504+65970+029180FM-15+0263EFKS V0201001N002610087019N0011001N1-01501-01601999999ADDGA1021+006609999GA2071+008709999GA3081+014709999GF108991999999999999999999MA1100811999999MW1731REMMET069EFKS 280450Z AUTO 10005KT 1100 SN FEW022 BKN029 OVC049 M15/M16 Q1008;EQDQ01+000003PRSWM1Q02    003PRSWM1
0172030630999992000051916004+57200-003830FM-12+022099999V0200201N002610078019N0200001N1+00931+00421100781ADDAY181999AY221999GA1061+007809089GF107991071081008001999999MD1210091+9999MW1251REMSYN082AAXX  19164 03063 41570 70205 10093 20042 40078 52009 72582 878// 333 86826 96015;
0102029800999992000102615004+59960+019970FM-12+001099999V0200401N003619999999N9999999N1+00681+00321099711ADDMD1210181+9999REMSYN076AAXX  26154 02980 46/// /0407 10068 20032 49971 52018 222// 555 778// 0/208;
0118030440999992000082609004+58280-004430FM-12+008099999V0201401N005719999999N0180001N1+01701+01211100501ADDIA2999+01209MD1710101+9999REMSYN080AAXX  26094 03044 46968 /1411 10170 20121 40050 57010 333 3/012 555 88/58 90851;
0099029750999992000021009504+60250+025050FM-15+0028EFHF V0202001N00261220001CN0099001N1+00001-00301999999ADDMA1100811999999MW1001REMMET047EFHF 0950Z 20005KT 160V250 CAVOK M00/M03 Q1008;EQDQ01+000000PRSWM2
0096030440999992000122120004+58280-004430FM-12+008099999V0209999C000019999999N0090001N1-00171+99999101951ADDMD1210041+9999REMSYN070AAXX  21204 03044 46959 /0000 11017 21002 40195 52004 555 80/99 91953;
0126030140999992000062215004+60110-002690FM-12+001399999V0201501N003119999999N9999999N1+01211+01081099811ADDMD1210061+9999REMSYN100AAXX  22154 03014 46/// /1506 10121 20108 49981 52006 555 05014 07150 10059 11079 12421 14904 15478;
0162029135999992000011522504+63720+023150FM-15+0025EFKK V0201701N00261000151CN0002501N1-00301-00301999999ADDGA1091+000159999GF109991999999000251999999MA1101291999999MW1451REMMET052EFKK 2250Z AUTO 17005KT 0250 FG VV002 M03/M03 Q1013;EQDQ01+000003PRSWM1Q02    003PRSWM1
0167029245999992000090207504+62690+022820FM-15+0092EFSI V0202001N001512200019N0112651N1+01401+01001999999ADDGA1021+003609999GA2021+004809999GF104991999999999999999999MA1100311999999MW1001REMMET057EFSI 020750Z AUTO 20003KT 9999 FEW012 SCT016 14/10 Q1003;EQDQ01+000000PRSWM2
0083028690999992000041911004+65970+029180SAO  +0263EFKS V0209999C000012200019N9999999N1+99999+99999999999ADDMW1001REMAWY065EFKS 191050Z AUTO 20008KT 170V250 9999 FEW019 SCT055 07/03 Q1012;
0140030030999992000011412504+59880-001300FM-15+0005EGPB V0209999C000010105019N0112651N1+00301-00101999999ADDGA1071+010509999GF107991999999999999999999MA1103291999999MW1001REMMET046EGPB 141250Z 00000KT 9999 BKN035 03/M01 Q1033;EQDQ01+000000PRSWM2
0156028790999992000010409004+64900+029020FM-12+0224EFSU V0201301N001510012019N0250001N1-00671-00821099151ADDAY171031AY221031GF108991081071001501999999MD1710251+9999MW1701REMSYN082AAXX  04094 02879 41275 81303 11067 21082 49915 57025 77072 887// 555 61069 790//;
0096030620999992000022910004+57820-003970FM-12+0004EGQA V0202201N008219999999N0300001N1+00391+00131098901ADDMD1710011+9999REMSYN070AAXX  29104 03062 46980 /2216 10039 20013 49890 57001 555 80/99 90951;
0239030680999992000032806004+57720-003320FM-12+0013EGQS V0202401N003610210019N0300001N1+00101-00071102951ADDAA199000091GA1021+013509069GA2041+021009069GF107991041051012501071011IA1099IA2999-00609KA1120N+00001MD1210071+9999REMSYN094AAXX  28064 03068 32680 72407 10010 21007 40295 52007 84571 333 20000 31106 82645 84657 85361;EQDQ01  00002PRCP99
0144030680999992000071107004+57710-003310FM-12+0013EGQS V0203301N00721012001CN0300001N1+00981+00521100681ADDGA1011+006609089GF107991071081008001999999MD1210121+9999REMSYN076AAXX  11074 03068 42580 73314 10098 20052 40068 52012 878// 333 81822 87644;
0252029450999992000100206004+61840+024790FM-12+0145EFHA V0201301N001010300019N0011001N1+00911+00641101691ADDAA199000091AY111061AY211061GF106991011051012501031001IA1019IA2999+00009KA1120M+00921KA2120N+00251MD1710101+9999MW1031REMSYN104AAXX  02064 02945 32611 61302 10091 20064 40169 57010 70311 81530 333 10092 20025 30000 555 7830/ 81100;EQDQ01  00002PRCP99
0105029110999992000052700004+63050+021770SAO  +0004EFVA V0202501N000512200019N9999999N1+99999+99999999999ADDAA199000021MW1001REMAWY076EFVA 262350Z AUTO 25016KT 220V280 9999 -RA SCT011 BKN015 OVC025 07/05 Q0997;
0139029720999992000092009504+60510+022260FM-15+0059EFTU V02099999999992200019N0112651N1+01301+00601999999ADDGA1021+009009999GF102991999999999999999999MA1102511999999MW1001REMMET045EFTU 200950Z VRB04KT 9999 FEW030 13/06 Q1025;EQDQ01+000000PRSWM2
0077030410999992000111218004+56820-004970FM-12+113099999V0202901N008219999999N9999999N1-00221-00221999999ADDKA1999M-00141REMSYN052AAXX  12184 03041 46/// /2916 11022 21022 333 11014;
0108030100999992000012308004+59080-004400FM-12+001699999V0202801N008719999999N9999999N1+00661+00431102751ADDMD1410001+9999REMSYN082AAXX  23084 03010 46/// /2817 10066 20043 40275 54000 555 05333 07281 10083 11108;
0194030080999992000100717004+59530-001620FM-12+005999999V0201501N013910600019N0250001N1+01041+00731100791ADDGA1011+005109089GA2031+036009039GA3071+060009009GF107991011011004501071021MD1710251+9999REMSYN094AAXX  07174 03008 42475 71527 10104 20073 40079 57025 81172 333 81817 83362 87070 90710 91138;
0114030020999992000122003004+60750-000850FM-12+001599999V0201501N014419999999N0120001N1+00741+00361101831ADDMD1710121+9999REMSYN088AAXX  20034 03002 46562 /1528 10074 20036 40183 57012 555 1//41 82/20 85/25 86/50 90253;
0123029100999992000031421004+63430+021070FM-12+000899999V0202501N002119999999N9999999N1-00341-00501099341ADDMA1999999099201MD1210151+9999REMSYN082AAXX  14214 02910 45/// /2504 11034 21050 39920 49934 52015 92039 555 789// 0/305;
0182029520999992000031118004+61470+021800FM-12+0017EFPO V0202901N001512200019N0500001N1-00631-01181101171ADDGA1001+999999999GF100991001001999999001001KA1120M-00301KA2999N-01161MD1210191+9999REMSYN088AAXX  11184 02952 4/984 02903 11063 21118 40117 52019 70000 80/// 91750 333 11030 21116;
0124029350999992000021612004+62400+025680FM-12+0145EFJY V0201301N001519999999N0048001N1-00131-00171099691ADDGF108991081999002501999999MD1210031+9999REMSYN072AAXX  16124 02935 4/348 81303 11013 21017 49969 52003 77177 88/// 91150;
0249029420999992000061806004+61840+022470FM-12+013699999V0201701N000512200019N0200001N1+00931+00451102311ADDAA112000791AY111061AY211061GA1001+999999999GF100991001001999999001001IA1019IA2999+00009KA1120M+00931KA2120N+00001MD1210091+9999MW1021REMSYN104AAXX  18064 02942 12970 01701 10093 20045 40231 52009 69902 70211 333 10093 20000 30000 555 60070 76700;
0141030220999992000111107504+57460-007370FM-15+0006EGPL V0201201N001012200019N0112651N1+00201+00101999999ADDGA1021+006009099GF104991999999999999999999MA1099291999999MW1001REMMET047EGPL 110750Z 12002KT 9999 SCT020CB 02/01 Q0993;EQDQ01+000000PRSWM2
